:100000000C94D8030C9400040C9400040C94000489
:100010000C9400040C9400040C9400040C94000450
:100020000C9400040C9400040C9467150C94D615E1
:100030000C9400040C9400040C9400040C94000430
:100040000C9400040C9400040C9400040C94000420
:100050000C9400040C9400040C9400040C941D15E2
:100060000C9400040C9400040C9400040C94000400
:100070000C9400040C9400040C9400040C940004F0
:100080000C9400040C9400040C9400040C940004E0
:100090000C9408180C9400040C9400040C940004B4
:1000A0000C9400040C9400040C9400040000000064
:1000B000003E5B4F5B3E3E6B4F6B3E1C3E7C3E1CEE
:1000C000183C7E3C181C577D571C1C5E7F5E1C0034
:1000D000183C1800FFE7C3E7FF0018241800FFE7EB
:1000E000DBE7FF30483A060E2629792926407F05AE
:1000F0000507407F05253F5A3CE73C5A7F3E1C1CC4
:1001000008081C1C3E7F14227F22145F5F005F5F83
:1001100006097F017F006689956A6060606060946F
:10012000A2FFA29408047E040810207E2010080874
:100130002A1C08081C2A08081E101010100C1E0C7F
:100140001E0C30383E3830060E3E0E060000000011
:100150000000005F00000007000700147F147F14F8
:10016000242A7F2A1223130864623649562050003D
:1001700008070300001C2241000041221C002A1C29
:100180007F1C2A08083E0808008070300008080814
:100190000808000060600020100804023E51494534
:1001A0003E00427F400072494949462141494D3352
:1001B0001814127F1027454545393C4A49493141B9
:1001C000211109073649494936464949291E000087
:1001D00014000000403400000008142241141414DC
:1001E0001414004122140802015909063E415D59C8
:1001F0004E7C1211127C7F494949363E41414122D1
:100200007F4141413E7F494949417F090909013EFA
:10021000414151737F0808087F00417F4100204021
:10022000413F017F081422417F404040407F021C33
:10023000027F7F0408107F3E4141413E7F0909094A
:10024000063E4151215E7F09192946264949493216
:1002500003017F01033F4040403F1F2040201F3FDC
:100260004038403F63140814630304780403615961
:10027000494D43007F4141410204081020004141A3
:10028000417F04020102044040404040000307084F
:100290000020545478407F2844443838444444284B
:1002A000384444287F385454541800087E090218F2
:1002B000A4A49C787F0804047800447D400020407A
:1002C000403D007F1028440000417F40007C0478BE
:1002D00004787C080404783844444438FC18242406
:1002E0001818242418FC7C08040408485454542486
:1002F00004043F44243C4040207C1C2040201C3C03
:100300004030403C44281028444C9090907C4464F9
:10031000544C44000836410000007700000041368C
:10032000080002010204023C2623263C1EA1A16112
:10033000123A4040207A3854545559215555794144
:100340002254547842215554784020545579400C19
:100350001E527212395555555939545454593955FC
:100360005454580000457C410002457D420001453F
:100370007C407D1211127DF0282528F07C545545D3
:10038000002054547C547C0A097F4932494949323F
:100390003A4444443A324A4848303A4141217A3A50
:1003A00042402078009DA0A07D3D4242423D3D401C
:1003B00040403D3C24FF2424487E4943662B2FFCCB
:1003C0002F2BFF0929F620C0887E09032054547979
:1003D000410000447D413048484A32384040227A4A
:1003E000007A0A0A727D0D19317D2629292F2826C7
:1003F0002929292630484D402038080808080808CF
:100400000808382F10C8ACBA2F102834FA00007B27
:10041000000008142A142222142A1408550055003A
:1004200055AA55AA55AAFF55FF55FF000000FF0029
:10043000101010FF00141414FF001010FF00FF1024
:1004400010F010F0141414FC001414F700FF000056
:10045000FF00FF1414F404FC141417101F10101FD5
:10046000101F1414141F00101010F0000000001FC3
:10047000101010101F10101010F010000000FF10CE
:100480001010101010101010FF10000000FF1400CA
:1004900000FF00FF00001F10170000FC04F41414FC
:1004A0001710171414F404F40000FF00F7141414C8
:1004B00014141414F700F7141414171410101F1048
:1004C0001F141414F4141010F010F000001F101F6B
:1004D0000000001F14000000FC140000F010F010D9
:1004E00010FF10FF141414FF141010101F00000050
:1004F00000F010FFFFFFFFFFF0F0F0F0F0FFFFFF54
:100500000000000000FFFF0F0F0F0F0F38444438AA
:1005100044FC4A4A4A347E02020606027E027E02F9
:1005200063554941633844443C04407E201E200604
:10053000027E020299A5E7A5991C2A492A1C4C7241
:1005400001724C304A4D4D303048784830BC625AC8
:10055000463D3E494949007E0101017E2A2A2A2A58
:100560002A44445F444440514A444040444A514034
:100570000000FF0103E080FF000008086B6B0836F5
:1005800012362436060F090F060000181800000066
:100590001010003040FF0101001F01011E00191D55
:1005A0001712003C3C3C3C0000000000080B00021D
:1005B00002020000090400000102020000052400FC
:1005C000100105240101010424020605240600018E
:1005D0000705810310004009040100020A00000021
:1005E00007050202400000070583024000000403E3
:1005F000090412010002EF0201404123378000018B
:100600000102030141726475696E6F204C4C430016
:1006100041726475696E6F204D6963726F000901E4
:1006200080961180FF3A81550A3601002A040000A5
:1006300000F02B04000000F021800A13800A2980BA
:100640001400000000240027002A002D00300000C4
:10065000000000250028002B002E003100000000C3
:10066000002300260029002C002F000404040404A9
:100670000304050202020204030202020206060645
:1006800006060604040202020404040802011040E3
:1006900080401020408040800802040180402010EB
:1006A0000201108010204040200000000200090FCD
:1006B0000000030401000C00000000000000000026
:1006C000000000000000000005010902A10109016D
:1006D000A1008501050919012903150025019503CC
:1006E0007501810295017505810305010930093104
:1006F00009381581257F750895038106C0C0000063
:100700000000000000002A2B28000000000000006C
:1007100000000000000000000000000000002C9E0F
:10072000B4A0A1A2A434A6A7A5AE362D3738271EA3
:100730001F20212223242526B333B62EB7B89F8449
:1007400085868788898A8B8C8D8E8F9091929394E1
:1007500095969798999A9B9C9D2F3130A3AD35041F
:1007600005060708090A0B0C0D0E0F1011121314C1
:1007700015161718191A1B1C1DAFB1B0B5000501CD
:100780000906A1018502050719E029E715002501E1
:100790007501950881029501750881039506750814
:1007A000150025730507190029738100C00056192B
:1007B00011241FBECFEFDAE0DEBFCDBF11E0A0E015
:1007C000B1E0E6E6FEE302C005900D92A238B10763
:1007D000D9F722E0A2E8B1E001C01D92A53DB20721
:1007E000E1F713E0C8EDD3E004C02197FE010E94B9
:1007F000261FC73DD107C9F70E943B1A0C94311F31
:100800000C9400000895FC0180913102882311F1BD
:100810003FB7F89482E08093E9002091F200822FA4
:1008200090E01816190614F481E090E0882339F05E
:10083000289A44E6409330024091F10040832223FD
:1008400039F02091F200211103C02BE62093E8003B
:100850003FBF08958FEF9FEF0895CF93DF931F92CF
:10086000CDB7DEB76983DC01ED91FC910280F381A5
:10087000E02D41E050E0BE016F5F7F4F09950F9082
:10088000DF91CF91089583E08093E9008091F20099
:10089000882319F08AE38093E8000895CF93DF93CB
:1008A0001F92CDB7DEB7FC018485958597FD08C002
:1008B0002FEF3FEF358724870F90DF91CF91089579
:1008C000CE0101960E940304019719F4898190E0FA
:1008D000F3CF8FEF9FEFF0CF0F931F93CF93DF9363
:1008E0001F92CDB7DEB78C01FC018485958597FFFB
:1008F0000BC0CE0101960E940304019771F4898117
:1009000090E0F80195878487F801848595850F909C
:10091000DF91CF911F910F9108958FEF9FEFF1CF4E
:10092000FC018485958597FD0BC09FB7F89482E004
:100930008093E9008091F2009FBF90E001960895B6
:100940009FB7F89482E08093E9008091F2009FBF06
:1009500090E0089581508F3008F047C0E82FF0E014
:10096000EC54FB4F0C94261FD104D504C304C904D6
:10097000CD04F504F504F504D804DE04E204E6042D
:10098000EC04F504F004809180008F778093800060
:100990000895809180008F7DF9CF80918000877FBE
:1009A000F5CF84B58F7784BD089584B58F7DFBCF57
:1009B000809190008F7780939000089580919000AF
:1009C0008F7DF9CF80919000877FF5CF8091C00017
:1009D0008F778093C00008958091C0008F7DF9CFFC
:1009E0008091C200877F8093C2000895CF93DF93E8
:1009F000282F30E0F901E755F94F8491F901E657C6
:100A0000F94FD491F901E559F94FC491CC23A1F0E4
:100A100081110E94AA04EC2FF0E0EE0FFF1FE35AB1
:100A2000F94FA591B491EC91ED2381E090E009F4A8
:100A300080E0DF91CF91089580E090E0FACF1F939E
:100A4000CF93DF93282F30E0F901E755F94F8491D8
:100A5000F901E657F94FD491F901E559F94FC491DD
:100A6000CC23A9F0162F81110E94AA04EC2FF0E0EC
:100A7000EE0FFF1FE15BF94FA591B4918FB7F8948A
:100A8000EC91111108C0D095DE23DC938FBFDF916C
:100A9000CF911F910895DE2BF8CFCF93DF9390E095
:100AA000FC01E657F94F24918559994FFC01849137
:100AB0008823C9F090E0880F991FFC01EF5BF94F84
:100AC000A591B491FC01E15BF94FC591D4916111FD
:100AD0000DC09FB7F8948C91209582238C938881C8
:100AE000282328839FBFDF91CF910895623051F46E
:100AF0009FB7F8943C91822F809583238C93E88153
:100B00002E2BEFCF8FB7F894EC912E2B2C938FBF19
:100B1000EACF3FB7F89480912C0290912D02A091DA
:100B20002E02B0912F0226B5A89B05C02F3F19F0C9
:100B30000196A11DB11D3FBFBA2FA92F982F88275D
:100B4000BC01CD01620F711D811D911D42E0660F38
:100B5000771F881F991F4A95D1F7089540911A026F
:100B600050911B022091180230911902421753072D
:100B7000B4F49091E8009570E1F39091E80092FD53
:100B800019C08093F10080911A0290911B02019686
:100B90008F739927892B19F48EEF8093E800809149
:100BA0001A0290911B02019690931B0280931A02E5
:100BB00081E0089580E00895DF92EF92FF920F9315
:100BC0001F93CF93DF93D82E8A01EB017B01E40EB4
:100BD000F51ECE15DF0559F0D7FE12C0FE01849137
:100BE0000E94AE0521968111F4CF0FEF1FEFC801CF
:100BF000DF91CF911F910F91FF90EF90DF900895BB
:100C00008881EECF2FB7F89487708093E900909198
:100C1000E800892F807295FF04C09091F20080E473
:100C2000891B2FBF089583E00E94020690E008957B
:100C3000615030F02091F100FC0120830196F8CF43
:100C4000289A84E6809330020895AF92BF92CF92A3
:100C5000DF92EF92FF920F931F93CF93DF936C017C
:100C60007B018B01040F151FEB015E01AE18BF085D
:100C7000C017D10759F06991D601ED91FC9101900F
:100C8000F081E02DC6010995892B79F7C501DF9127
:100C9000CF911F910F91FF90EF90DF90CF90BF9079
:100CA000AF9008958091100281110DC082E0809371
:100CB0000C0284E080930D0210920F0210920E023B
:100CC00081E0809310028CE092E008950F931F93CF
:100CD000CF93DF931F92CDB7DEB782E0898342E4E2
:100CE00050E06CEA75E080E80E94DC050E94520644
:100CF000DC0112960D911C910115110589F0D801A6
:100D0000ED91FC910280F381E02DBE016F5F7F4F7A
:100D1000C801099597FD04C0F80100851185ECCF45
:100D200089810F90DF91CF911F910F910895DC0180
:100D3000FB0112962C911297848195812817190630
:100D400041F491818081813A31F49D7F81E091303D
:100D500009F080E008958132E1F79B3029F4828127
:100D60001F968C9381E008959A3099F7828150966E
:100D70008C93F8CFDC01FB0188E4808389E48183D4
:100D800084E482831D969C911D979F709F5B938343
:100D90001D968D919C9124E0969587952A95E1F773
:100DA0008F708F5B848385E00895EF92FF920F939D
:100DB0001F93CF93DF93FB012081213871F52381AD
:100DC000223259F5DC0112964C912481358142176B
:100DD000130619F5EC010B851C85F12CE12C01158E
:100DE000110589F0F801448155816281738180E8A1
:100DF0000E94DC058F3F980749F0E80EF91ED801E4
:100E00000D911C91ECCF81E08F87C701DF91CF91CD
:100E10001F910F91FF90EF90089590E080E0F6CF42
:100E2000CF93DF93CDB7DEB769970FB6F894DEBFE7
:100E30000FBECDBFFC01DB018C918F5F8C939E01B7
:100E40002D5F3F4F8DE0D9011D928A95E9F729E08A
:100E5000298384E08A8391E09D8383E08E832A87BF
:100E600021E22B879C879D879F8722E2288B27E0A2
:100E70002B8B25E02C8B8E8B20E430E0388F2F8B52
:100E8000998F82818B8395858685998B8A8B8381C7
:100E900080688D8B49E150E0BE016F5F7F4F80E03D
:100EA0000E94DC0569960FB6F894DEBF0FBECDBF79
:100EB000DF91CF910895CF93DF9380910402811148
:100EC00067C081E08093F7018093F8012DEF31E056
:100ED0003093FA012093F9011092FC011092FB016A
:100EE00029E131E03093F4012093F3011092FF01E6
:100EF0001092FE01109201021092000280930202F1
:100F00008093030281EC8093FD010E945206FC0154
:100F100081819091F701482F490F5527551F48307F
:100F200051059CF5A281B381109709F523EF31E0BB
:100F30003383228320812093F5018093F6018091F1
:100F4000F801820F80832091F901A22FB091FA015C
:100F50008A2F821B8917C8F481813D91C82FD0E068
:100F6000C050DF4F38838F5F8183F2CFD90118964D
:100F70002D913C91199721153105C1F723EF31E0EF
:100F800019963C932E931897D5CF81E08093040255
:100F900083EF91E0DF91CF910895CF92DF92EF92AE
:100FA000FF920F931F93CF93DF936C01EB017B01B3
:100FB000E40EF51E10E000E0CE15DF0581F069912A
:100FC0006D30D1F3D601ED91FC910190F081E02DCF
:100FD000C6010995892B19F00F5F1F4FEDCFC8018E
:100FE000DF91CF911F910F91FF90EF90DF90CF9005
:100FF00008952091A901260F3327331F213231058F
:10100000ECF42091CD01FC0190E080E0243069F007
:1010100082E00895A091A9012191AC0147575E4F4C
:10102000A40FB52FB11D2C930196861798F38091CC
:10103000A901680F6093A90180E0089581E00895F7
:101040008FEF9FEF08958FEF9FEF089580918201BA
:1010500090E09195819591090895CF93DF93CB010D
:10106000EA01642F0E94F907CE01DF91CF91089524
:10107000CF93DF931F92CDB7DEB7698361E0CE01D6
:1010800001960E94F90781E090E00F90DF91CF91E7
:1010900008950895FC016370668B84819581268193
:1010A0003781613039F0633029F091878087338749
:1010B00022870895318720879387828708952F920A
:1010C0003F924F925F926F927F928F929F92AF92D8
:1010D000BF92CF92DF92EF92FF920F931F93CF9325
:1010E000DF93CDB7DEB76A970FB6F894DEBF0FBEB9
:1010F000CDBF9A8F898F7A8369834A01D22E188750
:101100000F833701BC2CDC0159962D913C915A97E5
:101110002115310509F015C118968D919C911997EB
:10112000681779070CF0D7C11A968D919C914817D2
:1011300059070CF0D0C14C2C512CB6E0CB9E600D61
:10114000711D11247C876B87161617060CF0C3C11E
:10115000EA2DF0E0FA87E98793E0EE0FFF1F9A95FA
:10116000E1F7F88BEF87CF01840F951F181619064A
:101170000CF0B1C1A98DBA8D58968C91811104C023
:10118000BFEABD1508F4D394A98DBA8DED91FC91F9
:1011900011970284F385E02DCD010995B5E0DB9E22
:1011A000C0011124E981FA81FC83EB83312C212CCD
:1011B0009C0124553F4F388F2F8B4A2D50E05E8B7A
:1011C0004D8BEF89F88DE20DF31D44919E828D8247
:1011D000D12CC12C69817A81620D731D7A8B698B48
:1011E000842F90E09C8B8B8BE98DFA8DA081B1814F
:1011F00040FF82C0F1E0BF126FC0AF126DC01C96FD
:10120000ED91FC912F813885A4014C0D5D1D6989FC
:101210007A89898D9A8D0995EB89FC89F595E795F1
:101220004E2F5FEFC51AD50A6D817E818D899E890B
:10123000680F791F7E836D8398E0C916D10481F60B
:10124000AFEF2A1A3A0AEB81FC81E40DF51DFC830D
:10125000EB83F5E02F16310409F0B3CF2F813885E9
:1012600026153705B9F0A98DBA8DED91FC91B1E045
:10127000BB1257C0AB1255C069817A816B5F7F4F3B
:101280000088F189E02D830128E030E0A401898DF8
:101290009A8D0995A98DBA8DED91FC9111970688CB
:1012A000F789E02DCD016A960FB6F894DEBF0FBE28
:1012B000CDBFDF91CF911F910F91FF90EF90DF9005
:1012C000CF90BF90AF909F908F907F906F905F90E6
:1012D0004F903F902F9009941E96ED91FC91EF80D6
:1012E000F88409851A8592014D815E816B817C812C
:1012F000898D9A8D099590CF2F81388526153705D0
:1013000009F48ACF31E0B31207C0A31205C01C96BE
:10131000ED91FC91930178CF1E96ED91FC917301B4
:10132000E0CF6B857C85641975090684F785E02D0F
:1013300073010F8518899201A401898D9A8D0995F1
:10134000A9CFF90134969491329745915491D91AC5
:10135000B7E0DB9E400D511D1124F9012591349118
:101360003C8B2B8BFA0125903490FA0132967490C5
:1013700031963491398B329664903196449041E0A5
:101380004C1518F04A1508F07FC0662D062C000C8D
:10139000770B7C836B83842D042C000C990B9E832C
:1013A0008D83A98DBA8DED91FC9111970284F385FF
:1013B000E02DCD010995512CD12CC12CEA2DF0E066
:1013C000FA87E9872B2D30E03C872B87A401440D59
:1013D000511D47FC5A95588F4F8B69817A81660D54
:1013E000711D67FC7A957E876D877989C71608F02D
:1013F00051CF2C2D30E04D815E81420F531FA985C6
:10140000BA854A9FC0014B9F900D5A9F900D1124A1
:10141000FC01E80DF91DF88BEF87852D612C4F89B4
:10142000588D420F531F5E8B4D8B671408F050C0D0
:1014300044244394480E877041F4C1010196EB891E
:10144000FC89E20DF31DD4901C01D7FE19C0A98DB3
:10145000BA8DED91FC91662D70E0B1E0BB1219C020
:10146000AB1217C02D853E85620F731F0484F5856E
:10147000E02D2F8138854D895E89898D9A8D09955A
:10148000DD0C6394842DD1CF1E821D821C821B82B1
:1014900088CF4B815C81640F751FAB85BC856A9FCB
:1014A000C0016B9F900D7A9F900D112469817A8104
:1014B000680F791F0684F785E02DEF80F884098591
:1014C0001A859D014F855889898D9A8D0995D8CFA8
:1014D000570CC3948ACF6A960FB6F894DEBF0FBE3E
:1014E000CDBFDF91CF911F910F91FF90EF90DF90D3
:1014F000CF90BF90AF909F908F907F906F905F90B4
:101500004F903F902F9008958F929F92AF92CF92DD
:10151000EF92FF920F931F93CF93DF93EC01262F4F
:10152000898D9A8D009709F051C06A30D1F41D86DB
:101530001C868D8948E0849F900111248E859F85AB
:10154000820F931F9F878E8781E090E0DF91CF917C
:101550001F910F91FF90EF90CF90AF909F908F9041
:1015600008956D3089F3CC88AD888F898823C1F0C8
:101570008C859D8536E0C39E800D911D1124488584
:1015800059854817590764F44E855F851D861C866A
:1015900038E0A39EC0011124840F951F9F878E877A
:1015A000EA88FB88088919894E855F856C857D8569
:1015B000CE010E945F082C898C859D8546E0249F82
:1015C000800D911D11249D878C87BECF6A3069F4F0
:1015D0001D861C86FC013896E4912D898E859F8599
:1015E000E29F800D911D1124ADCF6D3009F4ACCF79
:1015F000FC0134963491631708F4A6CF3296E49137
:10160000E61708F4A1CFFC01329685909490462FFE
:10161000431B342F47E0349F800C911C1124F401AC
:10162000329634913196E4913323A9F1EE2399F166
:10163000CC88F4013596E491AD884F89442301F1BB
:101640000E2E000CFF0BE30FF11DCE9EA001CF9ECE
:10165000500D11246C857D85460F571F688579854F
:10166000641775076CF44E855F851D861C86FC012A
:101670003896E491AE9E400D511D11245F874E8730
:10168000EA88FB88088919894E855F856C857D8588
:10169000CE010E945F08F4013496E4912C898C8578
:1016A0009D85E29F800D911D11248DCF6F927F92B9
:1016B0008F929F92AF92BF92CF92DF92EF92FF9262
:1016C0000F931F93CF93DF93EC016B015A01390104
:1016D0004801E881F9810284F385E02D0995E881CC
:1016E000F9810288F389E02D87019301A501B601F4
:1016F000CE010995A501480D591D41505109E881B8
:10170000F9810288F389E02D9301B601CE01099594
:10171000E881F9810088F189E02D9401A501B601E5
:10172000CE010995C60CD71CB60161507109E8813C
:10173000F9810088F189E02D9401A501CE01099578
:10174000E881F9810688F789E02DCE01DF91CF91FC
:101750001F910F91FF90EF90DF90CF90BF90AF90CF
:101760009F908F907F906F9009946F927F928F924D
:101770009F92AF92BF92CF92DF92EF92FF920F9320
:101780001F93CF93DF935C01EB016A01490138019C
:101790008701DC01ED91FC916217730719F564165E
:1017A00075062CF0962D872D3A01C92ED82E96015C
:1017B000261937092F5F3F4F048CF58DE02DA301CB
:1017C000BE01C5010995DF91CF911F910F91FF9047
:1017D000EF90DF90CF90BF90AF909F908F907F90D1
:1017E0006F9008954615570591F42617370724F092
:1017F000892D4B01C22FD82F9E01281939092F5F3F
:101800003F4F068CF78DE02DA601B401DACF02849C
:10181000F385E02D0995D501ED91FC910488F589BA
:10182000E02D83019401A601BE01C5010995D501F2
:10183000ED91FC910688F789E02DC501DF91CF91EC
:101840001F910F91FF90EF90DF90CF90BF90AF90DE
:101850009F908F907F906F900994EF92FF920F93DB
:101860001F93DC011A960D911C911B9718962D91D0
:101870003C911997ED91FC9100A0F1A1E02D7B0125
:1018800050E040E070E060E009951F910F91FF90FB
:10189000EF9008954F925F926F927F928F929F92F6
:1018A000AF92BF92CF92DF92EF92FF920F931F936E
:1018B000CF93DF936C012B015A0139014801DC0100
:1018C000ED91FC910284F385E02D0995E201640C11
:1018D000751CD601ED91FC91C615D7055CF4008806
:1018E000F189E02D87019401A501BE01C60109958A
:1018F0002196EFCF0688F789E02DC601DF91CF91C1
:101900001F910F91FF90EF90DF90CF90BF90AF901D
:101910009F908F907F906F905F904F9009948F92DF
:101920009F92AF92BF92CF92DF92EF92FF920F936E
:101930001F93CF93DF93EC015B014A016901E881BA
:10194000F9810284F385E02D099595012C0D3D1D4B
:1019500021503109E881F9810488F589E02D780169
:101960008401A401B501CE010995E881F9810688B9
:10197000F789E02DCE01DF91CF911F910F91FF905C
:10198000EF90DF90CF90BF90AF909F908F90099491
:101990008F929F92AF92BF92CF92DF92EF92FF927F
:1019A0000F931F93CF93DF93EC015B014A01690111
:1019B0007801E881F9810284F385E02D0995C80C4E
:1019C000D91C860101501109E881F9810488F58943
:1019D000E02D9501A401B501CE010995E881F981B9
:1019E0000688F789E02DCE01DF91CF911F910F91ED
:1019F000FF90EF90DF90CF90BF90AF909F908F902F
:101A00000994EF92FF920F931F93DC01ED91FC91EB
:101A100000A0F1A1E02D09951F910F91FF90EF908B
:101A200008950F931F93DC01ED91FC91068CF78DC7
:101A3000E02D09951F910F9108950F931F93DC01DD
:101A4000ED91FC91048CF58DE02D09951F910F917E
:101A50000895DC01ED91FC910084F185E02D09945D
:101A60002F923F924F925F926F927F928F929F92AE
:101A7000AF92BF92CF92DF92EF92FF920F931F939C
:101A8000CF93DF9300D000D000D0CDB7DEB77C017C
:101A90008B015E834D83AB01485E5F4F2D813E819C
:101AA000BC018DEA92E00E94290DA801485151091C
:101AB0002D813E81B7018DEA92E00E94290DB70188
:101AC000685E7F4F2D813E81A8018DEA92E00E94E1
:101AD000290DB701685171092D813E81A8018DEA58
:101AE00092E00E94290D81E090E09A838983B12CD5
:101AF000A12C88E1C82ED12C80ED9FEF9C838B8395
:101B000099EE692E77247A949FEFA91AB90A8981F0
:101B10009A8102969A838983680E791E25014E0C5C
:101B20005F1C2D813E8148018C0C9D1CA401B201DB
:101B30008DEA92E00E94290D17012A183B082D8199
:101B40003E81A401B1018DEA92E00E94290D2D8110
:101B50003E8148018C189D08A401B2018DEA92E0F3
:101B60000E94290D2D813E81A401B1018DEA92E0F0
:101B70000E94290D48018A0C9B1C2D813E81A401E5
:101B800027014C0C5D1CB2018DEA92E00E94290DE8
:101B90002D813E81A40117012C183D08B1018DEA69
:101BA00092E00E94290D48018A189B082D813E81F0
:101BB000A401B2018DEA92E00E94290D2D813E819F
:101BC000A401B1018DEA92E00E94290DAC14BD047C
:101BD000CCF026960FB6F894DEBF0FBECDBFDF91D6
:101BE000CF911F910F91FF90EF90DF90CF90BF901A
:101BF000AF909F908F907F906F905F904F903F90AD
:101C00002F90089577FC80CF91E0C91AD1088B817D
:101C10009C8102969C838B83680E791E75CF2F92D0
:101C20003F924F925F926F927F928F929F92AF926C
:101C3000BF92CF92DF92EF92FF920F931F93CF93B9
:101C4000DF9300D000D000D0CDB7DEB73C016A01F1
:101C50003E832D83FC82EB825801A41AB50AB7FE9D
:101C600003C0B194A194B1088D809E80861A970A12
:101C700097FE03C09194819491088A149B045CF0B0
:101C8000902F812F0D811E819D838E839C2D8D2D04
:101C90006B01692F782F0C151D055CF09D818E81DD
:101CA0007E836D83692F782F902F812F8601C92E17
:101CB000D82E1601201A310A2B012D813E81421A9D
:101CC000530A57FE03C0519441945108710137FEE5
:101CD00003C03FEFE31AF30AF594E7948D819E81E8
:101CE000861797075CF5A1E0B0E0BA83A983C01618
:101CF000D1064CF1D301ED91FC910484F585E02DE2
:101D00002B813C81A8016D817E818A149B041CF08B
:101D10004D815E81B801C3010995E418F508F7FE0D
:101D20000AC02D813E8189819A81280F391F3E8307
:101D30002D83E20CF31C0F5F1F4FD9CF2FEF3FEF26
:101D40003A832983D4CF26960FB6F894DEBF0FBE10
:101D5000CDBFDF91CF911F910F91FF90EF90DF905A
:101D6000CF90BF90AF909F908F907F906F905F903B
:101D70004F903F902F900895FB019EBD00C000C082
:101D800000C000C000C000C000C000C000008EBD88
:101D900000C000C000C000C000C000C000003197FB
:101DA00061F708958EBD00C000C000C000C0089556
:101DB000EF92FF920F931F93DC011A960D911C91E5
:101DC0001B9718962D913C911997ED91FC9100A0CD
:101DD000F1A1E02D7B0150E040E070E060E009956A
:101DE0001F910F91FF90EF900895AF92BF92CF9205
:101DF000DF92EF92FF920F931F93CF93DF93EC014B
:101E0000ED8CF12C5701A60EB71EE20EF31E8E8D3F
:101E100090E06C01C40ED51E080F191FEEA1FFA1A2
:101E200090818BA18095892380838AE20E94D20EC3
:101E3000EEA1FFA180819BA1892B80838B2D0E9425
:101E4000D20E8A2D0E94D20E8F2D0E94D20E8E2D80
:101E50000E94D20EEEA1FFA190818BA180958923D3
:101E600080838BE20E94D20EEEA1FFA180819BA114
:101E7000892B80838D2D0E94D20E8C2D0E94D20E34
:101E8000812F0E94D20E802F0E94D20EEEA1FFA1C0
:101E900090818BA18095892380838CE20E94D20E51
:101EA000EEA1FFA180819BA1892B8083DF91CF913F
:101EB0001F910F91FF90EF90DF90CF90BF90AF9068
:101EC0000895CF92DF92EF92FF920F931F93CF93DB
:101ED000DF936901E801DC011896ED91FC911997F7
:101EE0006E177F07E4F51A962D913C914217530720
:101EF000B4F51C141D049CF51C161D0684F5DB01AD
:101F0000AC0DBD1DEA17FB071CF46F01C61AD70AFA
:101F1000FA01EC0FFD1F2E173F071CF4E901C41B4B
:101F2000D50B8E01040F151F015011099601260FC4
:101F3000371F215031090E94F50ECC9EB001CD9E75
:101F4000700DDC9E700D1124C701DF91CF911F91A0
:101F50000F91FF90EF90DF90CF900C94BC0EDF912B
:101F6000CF911F910F91FF90EF90DF90CF90089548
:101F7000EF92FF920F931F93CF93DF93E9017801C4
:101F8000DC0118962D913C9119976217730724F57F
:101F90001A96ED91FC914E175F07F4F41C161D067E
:101FA000DCF4FB01EC0FFD1F2E173F071CF4E901C9
:101FB000C61BD70B9E01260F371F215031098A01FE
:101FC0000E94F50EBE01C701DF91CF911F910F91C5
:101FD000FF90EF900C94BC0EDF91CF911F910F9169
:101FE000FF90EF900895EF92FF920F931F93CF937E
:101FF000DF93E9017801FC012085318562177307C1
:102000001CF52285338542175307F4F41C161D0670
:10201000DCF4FA01EC0FFD1F2E173F071CF4E90159
:10202000C41BD50B8A010C0F1D1F015011099B0108
:102030000E94F50EBE01C701DF91CF911F910F9154
:10204000FF90EF900C94BC0EDF91CF911F910F91F8
:10205000FF90EF9008950F931F93CF93DF9377FD39
:1020600023C0DC011896ED91FC9119976E177F073C
:10207000DCF457FD19C01A96ED91FC914E175F07DD
:102080009CF4E9018A010F5F1F4F9B012F5F3F4FB7
:102090000E94F50E8D2F0E94D20E8C2FDF91CF91D2
:1020A0001F910F910C94D20EDF91CF911F910F9140
:1020B0000895DC01862F9696ED91FC91979790817B
:1020C00093962C91922B90830C94D20EDC01862F48
:1020D0009696ED91FC919797208193969C9190957F
:1020E000922390830C94D20E611103C061E20C9490
:1020F000661060E2FCCF1F93CF93DF93EC01162FA5
:1021000066E30E94661013701E8B1230C9F0133004
:10211000F1F0113061F060ECCE010E9459108B8D0E
:102120008D8F8C8D8E8FDF91CF911F91089560EAF6
:10213000CE010E9459108B8D8E8F8C8D8D8FF3CF99
:1021400060E0CE010E9459101D8E1E8EECCF60E61D
:10215000F8CF089590E080E00895AF92BF92CF92BB
:10216000DF92EF92FF920F931F93CF93DF938CE256
:10217000E82EF12C10E000E0AA24A394B12C680111
:10218000C6E3D0E02091250230912602C5010C2C37
:1021900002C0880F991F0A94E2F78223932340EE2E
:1021A00057E0892B11F440E058EFBE01C7010E94AF
:1021B000300D84E0C80ED11CE296CE3FD10511F758
:1021C0000F5F1F4F82E3E80EF11C04301105B9F6D2
:1021D00010920C0110920B01DF91CF911F910F9182
:1021E000FF90EF90DF90CF90BF90AF9008958F92C7
:1021F0009F92AF92BF92CF92DF92EF92FF926B01CC
:102200007C010E9489054B015C01C114D104E104E9
:10221000F10419F180910B0190910C01892B11F0BF
:102220000E94AD100E948905681979098A099B09E5
:10223000683E73408105910540F321E0C21AD10840
:10224000E108F10888EE880E83E0981EA11CB11CFD
:10225000C114D104E104F10429F7FF90EF90DF905D
:10226000CF90BF90AF909F908F9008957F928F9264
:102270009F92AF92BF92CF92DF92EF92FF920F9315
:102280001F93CF93DF93C82E8B017A018091310287
:10229000811110C08FEF9FEFDF91CF911F910F91B0
:1022A000FF90EF90DF90CF90BF90AF909F908F9076
:1022B0007F90089580911E0280FF05C08091E0000C
:1022C00082608093E000CE2DDF2DD12C8AEFB82ED6
:1022D0008C2D8770982E8C2D8072882E8C2D80747A
:1022E000782E9AE3A92E209719F4DD2009F452C024
:1022F0008C2D0E94020681110AC0BA94BB2051F2B3
:1023000061E070E080E090E00E94F710ECCF8C1765
:102310001D0611F00CF08C2F9FB7F8949092E900F5
:102320002091E80025FD02C09FBFDDCF282F30E0BF
:10233000C21BD30B882029F08150A0F01092F1002D
:10234000FBCFF801C7FC0AC0815050F04191409387
:10235000F100FACF44914093F10031968150D0F7CB
:10236000020F131FDD2021F0A092E800D12CDCCF5A
:102370008091E80085FD07C0A092E800DD24D39499
:10238000209791F2F3CF209779F6772069F2A09207
:10239000E800CACF5D9A84E680931D02C7017CCF16
:1023A000CF93DF93EC0180911401882331F083E017
:1023B0000E9436111816190634F081E090E09B83D4
:1023C0008A8380E090E0DF91CF910895AF92BF9231
:1023D000CF92DF92EF92FF920F931F93CF93DF93F1
:1023E0001F92CDB7DEB77C0169836A01590141E0D4
:1023F00050E0BE016F5F7F4FFC0183810E94361168
:102400008C0197FD0BC0F7018381A501B6018064A3
:102410000E943611080F191F97FD8C01C8010F90FB
:10242000DF91CF911F910F91FF90EF90DF90CF90B0
:10243000BF90AF900895CF93DF9300D000D0CDB779
:10244000DEB79091900299838A836B831C820E94ED
:102450005B0724E030E0AE014F5F5F4F61E00E9418
:10246000E6110F900F900F900F90DF91CF9108958C
:102470008093900260E080E00E941B121092900214
:1024800060E080E00C941B1290919002892B9817C9
:1024900031F08093900260E080E00C941B1208956C
:1024A000CF93DF93EC01683858F168588E81861716
:1024B000D1F08F818617B9F088858617A1F08985BC
:1024C000861789F08A85861771F08B85861759F0F3
:1024D000FE01369690E080E02191211147C08C0FDB
:1024E0009D1FFC0166830E945B07AE014C5F5F4F3E
:1024F00028E030E062E00E94E61181E090E01FC039
:10250000862F90E067FF0EC0FC01E058F10921E042
:1025100030E001C0220FEA95EAF78C81822B8C8390
:1025200060E0C4CFEC85FD85E80FF91F649161116F
:1025300009C081E090E09B838A8390E080E0DF9196
:10254000CF910895862F807C803C49F48C818064F3
:102550008C836F73623309F0A9CF64E6A7CF67FF5E
:10256000F9CF8C8182608C836F77F4CF01968630AF
:10257000910509F0B1CFDDCFCF93DF93EC0168383F
:10258000E0F06858FE0186E0662321F096819613FC
:1025900001C01682815031968111F6CF0E945B07EF
:1025A000AE014C5F5F4F28E030E062E00E94E61130
:1025B00081E090E0DF91CF910895862F90E067FF52
:1025C0000FC0FC01E058F10981E090E001C0880FE4
:1025D000EA95EAF780959C8189238C8360E0D2CFCD
:1025E000EC85FD85E80FF91F649190E080E066239B
:1025F00009F3862F807C803C49F48C818F7B8C830F
:102600006F73623309F0BECF64E6BCCF67FFF9CFCA
:102610008C818D7F8C836F77F4CFEF92FF921F9325
:10262000CF93DF93EC01162F0E9450127C01612F93
:10263000CE010E94BC12C7019927DF91CF911F9153
:10264000FF90EF900895CF93C9E261E881E80E947E
:102650001B12C150D1F7C8E263E48CE70E941B1241
:10266000C150D1F762E370E080E090E00E94F71083
:1026700081E00E94381260E971E080E090E00E9401
:10268000F71081E00E94381260E971E080E090E08C
:102690000E94F71081E00E94381260E971E080E04A
:1026A00090E0CF910C94F710CF93C9E261E881E8F4
:1026B0000E941B12C150D1F7C5E068E785E20E9475
:1026C0001B12C150D1F760E971E080E090E00E94F8
:1026D000F71081E00E94381262E370E080E090E041
:1026E0000E94F710C4E161E288E70E941B12C1500A
:1026F000D1F762E370E080E090E00E94F71081E0A3
:102700000E94381262E370E080E090E00E94F710CF
:102710000E942313C5E16BEA81E80E941B12C1509D
:10272000D1F762E370E080E090E00E94F71081E072
:102730000E94381262E370E080E090E00E94F7109F
:10274000C9E261E881E80E941B12C150D1F7C6E0DE
:102750006FE780E20E941B12C150D1F760E971E07F
:1027600080E090E00E94F71081E00E94381262E35E
:1027700070E080E090E00E94F710C4E168EF8FE71E
:102780000E941B12C150D1F762E370E080E090E03C
:102790000E94F71081E00E9438120E942313C5E1C5
:1027A0006FE981E80E941B12C150D1F762E370E02B
:1027B00080E090E00E94F71081E0CF910C943812F5
:1027C000CF93C9E261E881E80E941B12C150D1F7A2
:1027D000C4E068E780E30E941B12C150D1F762E3B6
:1027E00070E080E090E00E94F71081E00E943812D3
:1027F00062E370E080E090E00E94F710C4E164E1E1
:102800008FE70E941B12C150D1F762E370E080E0B5
:1028100090E00E94F71081E00E94381262E370E0BD
:1028200080E090E00E94F7100E942313C5E164E964
:1028300081E80E941B12C150D1F762E370E080E092
:1028400090E00E94F71081E00E94381262E370E08D
:1028500080E090E00E94F710CBE06DE781E50E94F8
:102860001B12C150D1F760E971E080E090E00E9456
:10287000F71081E00E94381262E370E080E090E09F
:102880000E94F7100E942313C5E16FE981E80E94BE
:102890001B12C150D1F762E370E080E090E00E942B
:1028A000F71081E00E94381262E370E080E090E06F
:1028B0000E94F710C9E261E881E80E941B12C15032
:1028C000D1F7C5E068E785E20E941B12C150D1F73D
:1028D00060E971E080E090E00E94F71081E00E94E2
:1028E000381262E370E080E090E00E94F710C4E0EC
:1028F0006FE782EE0E941B12C150D1F760E971E0D0
:1029000080E090E00E94F71081E00E94381262E3BC
:1029100070E080E090E00E94F7100E942313C5E170
:102920006FE981E80E941B12C150D1F762E370E0A9
:1029300080E090E00E94F71081E00E94381262E38C
:1029400070E080E090E0CF910C94F7100E942C1F73
:102950001F93CF93DF9385ED8093BC008091850119
:1029600090918601A0918701B09188010796A11DE1
:10297000B11D23E0B695A795979587952A95D1F730
:102980002091BC0024FD03C01092CD0152C04091A3
:102990008501509186016091870170918801452BD6
:1029A000462B472B69F30097A105B10541F02AE2B8
:1029B0002A95F1F700C00197A109B109E1CF8091F3
:1029C0008401C1E0C0938301882399F1D091B800BC
:1029D0001091BA008091BC008A7B8093BC0060E0BB
:1029E00082E00E941F0560E083E00E941F051092B4
:1029F000CD01C093CF011092CE0161E082E00E9430
:102A00001F0561E083E00E941F058091B9008E7F61
:102A10008093B9008091B9008D7F8093B90088E4DC
:102A20008093B80085E48093BC001093BA00D093E3
:102A3000B800DF91CF911F9108951F920F920FB6AA
:102A40000F9211242F933F938F939F93AF93BF9334
:102A50008091280290912902A0912A02B0912B0224
:102A60003091270223E0230F2D3758F50196A11D41
:102A7000B11D209327028093280290932902A093EE
:102A80002A02B0932B0280912C0290912D02A091EA
:102A90002E02B0912F020196A11DB11D80932C0230
:102AA00090932D02A0932E02B0932F02BF91AF916D
:102AB0009F918F913F912F910F900FBE0F901F907C
:102AC000189526E8230F0296A11DB11DD2CF1F92A3
:102AD0000F920FB60F9211248F939F938091E10074
:102AE0009091E100937F9093E10083FF0FC01092DB
:102AF000E90091E09093EB001092EC0092E3909348
:102B0000ED001092310298E09093F00082FF22C015
:102B100093E09093E9009091F200992319F09AE3E1
:102B20009093E80090911D02992341F090911D022D
:102B3000915090931D02911101C05D9890913002C7
:102B4000992341F09091300291509093300291116D
:102B500001C0289884FF18C08091E2008E7E8160B9
:102B60008093E2008091E1008F7E8093E10080916C
:102B70001E028E7E806180931E029F918F910F9026
:102B80000FBE0F901F90189580FFF7CF8091E20045
:102B90008E7E80618093E2008091E1008E7E809342
:102BA000E10080911E028E7E8160E5CF1F920F9220
:102BB0000FB60F921124CF92DF92EF92FF920F93F4
:102BC0001F932F933F934F935F936F937F938F93B5
:102BD0009F93AF93BF93EF93FF93CF93DF93CDB7C3
:102BE000DEB76C97DEBFCDBF1092E9008091E800A0
:102BF00083FF25C068E0CE0145960E94180682EF4B
:102C00008093E8008D8987FF39C09091E80090FF9C
:102C1000FCCF982F907609F034C19E894F89588D4A
:102C20002F89F88C911131C0803861F580911F0295
:102C30008093F1001092F1008EEF8093E8006C9683
:102C40000FB6F894DEBF0FBECDBFDF91CF91FF91DD
:102C5000EF91BF91AF919F918F917F916F915F9114
:102C60004F913F912F911F910F91FF90EF90DF9027
:102C7000CF900F900FBE0F901F9018959EEF9093DE
:102C8000E800C7CF1092F100D5CF913059F48111EF
:102C9000D3CF4130510581F680911F028D7F809303
:102CA0001F02CACF933049F48111C6CF413051057C
:102CB00019F680911F028260F2CF953041F4809125
:102CC000E80080FFFCCF20682093E300B5CF96306A
:102CD00009F0A9C00B8D1C8D22E01092E900109222
:102CE0001B0210921A02F2122EC0109219021092B8
:102CF00018020E9466061F8299E09983FA8291E089
:102D00009E8390EA98879AEF998720911A023091D2
:102D10001B02275F3F4F3C832B838D831092E9007A
:102D200010921B0210921A021093190200931802BB
:102D300049E050E0BE016F5F7F4F80E00E94DC05FC
:102D40000E94660679CF10931902009318020E9420
:102D50005206DC0112960D911C910115110509F422
:102D600051C1D801ED91FC910480F581E02DBE01A7
:102D70006B5E7F4FC8010995009709F03EC1F801CD
:102D800000851185EACFF3E0FF120EC08F898823FA
:102D900009F440C0823061F440E86DE080E196E0E3
:102DA0000E942319811148CF81E28093EB0047CF25
:102DB000813029F440E86BE084E096E0F1CF833085
:102DC00099F70E945206DC011296ED90FC908E015C
:102DD0000F5F1F4F6801E114F10479F0D701ED9105
:102DE000FC910680F781E02DB801C7010995080F15
:102DF000111DF701E084F184EECFD8011C92F60199
:102E000001900020E9F73197BF016C197D0940E07E
:102E1000C601C6CF6EEE75E0FB01449150E080E83C
:102E20000E94DC0509CF973009F4BECF983021F419
:102E300081E08093F10000CF993009F0FDCE8370DE
:102E400009F0B2CFE1E0F1E081E031E096E32191D9
:102E5000222371F08093E9003093EB00DF0111979A
:102E60002C912093EC009093ED008F5F873079F7E1
:102E70008EE78093EA001092EA008F8980933102F6
:102E8000DBCE8B8D9C8D1092E90010921B0210926C
:102E90001A029093190280931802898D811192C0B1
:102EA0008E899D89913A49F4813209F07DCF47E0BE
:102EB00050E06DE071E080E0B3CF913209F074CF63
:102EC000833269F48F89988DB0E0A0E08093070188
:102ED00090930801A0930901B0930A01ADCE80320E
:102EE00069F48091E80082FFFCCF67E08DE091E01B
:102EF0000E9418068BEF8093E8009ECE823209F084
:102F00009BCE8F8980931401EEEFFFE7859194911A
:102F10008B3F9C4D51F1E0E0F8E080910D019091E4
:102F20000E01A0910F01B0911001803B9440A105CA
:102F3000B105F1F48091140180FD1AC0EE3F8AE0E2
:102F4000F80789F587E797E7918380838091600090
:102F500080931C0288E19BE00FB6F894A8958093BB
:102F600060000FBE9093600067CEEEEFFAE0D5CF21
:102F7000808191818737974709F05ECEA89580912F
:102F8000600088618093600080911C0280936000E3
:102F9000EE3F2AE0F20789F08091FE0A9091FF0A45
:102FA0009183808349CE808191818737980751F240
:102FB0009093FF0A8093FE0AC5CF1092FF0A1092E9
:102FC000FE0A3ACE0E945206DC0112960D911C9127
:102FD0000115110509F4E8CED801ED91FC9101909D
:102FE000F081E02DBE016B5E7F4FC8010995811114
:102FF00023CEF80100851185EBCF181619060CF4C5
:103000001BCED2CEF1E0FF12BECE62EF75E004CF50
:103010001F920F920FB60F9211242F933F934F934D
:103020005F936F937F938F939F93AF93BF93EF9330
:10303000FF938091B900887F803609F44AC0F0F58B
:10304000883209F4A5C018F5803109F499C0B8F4A4
:10305000882309F4F5C0883009F492C0FF91EF91FC
:10306000BF91AF919F918F917F916F915F914F91A0
:103070003F912F910F900FBE0F901F9018958831A0
:1030800009F486C0803251F78093CC0114C080349B
:1030900009F49BC040F48033B9F38833F9F6809388
:1030A000CC0185ECAEC0803509F483C0883509F4C5
:1030B00094C0883499F60E94A814D0CF883909F4B6
:1030C0008AC038F5883729F050F4883611F08037F7
:1030D00029F683E08093CD011092CB0155C088384A
:1030E00009F479C0803919F0803809F0B7CF8091A0
:1030F000CB01803208F06FC0E091CB0181E08E0FF0
:103100008093CB018091BB00F0E0E555FE4F8083BA
:103110003BC0803B39F0D0F4803A09F477C0883A5C
:1031200009F09CCF84E08093CD011092AA01109207
:10313000A901F0E0E0E009958091A90181110FC09B
:1031400081E08093A9011092890109C0803C09F4B3
:10315000A8CF883C09F4A5CF883B09F07FCFE09148
:10316000AA0181E08E0F8093AA01F0E0E757FE4F9D
:1031700080818093BB009091AA018091A90129C010
:103180008091F2018093BB0085EC8093BC0066CFF8
:103190009091F1018091F001981758F5E091F101BB
:1031A00081E08E0F8093F101F0E0E053FE4F8081CB
:1031B000E9CFE091F10181E08E0F8093F1018091E0
:1031C000BB00F0E0E053FE4F80839091F1018091CD
:1031D000F0019817C8F285E8D8CFE091F10181E0BD
:1031E0008E0F8093F1018091BB00F0E0E053FE4F21
:1031F00080838091CF0181115ECF81E08093CE01E9
:1032000084EA8093BC001092CD0128CF85EC809396
:10321000BC001092CD018091CB01803230F4E0915E
:10322000CB01F0E0E555FE4F10826091CB0170E0DC
:103230008BEA91E0F0E0E0E009951092CB010ECF2F
:103240001092CC0138CFEF92FF920F931F93CF9340
:10325000DF93F82E192FE62E042F81E0860F880FBA
:103260000E94AE0583E00E94AE05CF2DD12FEC0E5B
:10327000FD2EF11CCE15DF05B9F007FF13C0FE01CE
:1032800084910E94AE05182F80E00E94AE05812334
:1032900021968111EFCFDF91CF911F910F91FF9078
:1032A000EF9008958881EDCF81E0F5CF109235023F
:1032B0001092340288EE93E0A0E0B0E080933602F2
:1032C00090933702A0933802B093390285E291E0DF
:1032D00090933302809332028FEF9FEF90933F02DF
:1032E00080933E021092900280918802811113C057
:1032F000109283021092820288EC96E090938502ED
:103300008093840286E390E0909387028093860204
:1033100081E0809388020E945B07FC01A385B4854D
:10332000109709F093C082E892E09487838785859F
:1033300096852091860230918702820F931F96878F
:1033400085871092A2021092A10287E391E09093E8
:10335000A00280939F0280919702811113C0109266
:103360009202109291028EE797E0909394028093DC
:1033700093028FE290E0909396028093950281E011
:10338000809397020E945B07FC01A385B485109788
:1033900009F067C081E992E09487838785859685E7
:1033A0002091950230919602820F931F9687858710
:1033B0008EEF96E09093AC028093AB021092B00235
:1033C0001092AF0280EF90E09093B2028093B1022E
:1033D0009093B4028093B3029093B6028093B502A7
:1033E0009093B8028093B7021092C3021092BA026F
:1033F0001092B9021092BC021092BB0281E080933D
:10340000C2028093C1022FEF3FEF3093C00220939E
:10341000BF023093BE022093BD028093C40210927B
:10342000C5021092C7021092C60283E491E0909305
:10343000AE028093AD028FEF8093CC0283E1809344
:10344000CD0282E18093CE020895DC018D919C91A2
:1034500011970097D1F782E892E08D939C9367CF04
:10346000DC018D919C9111970097D1F781E992E051
:103470008D939C9393CF789484B5826084BD84B5FA
:10348000816084BD85B5826085BD85B5816085BD5F
:1034900080916E00816080936E0010928100809117
:1034A000810082608093810080918100816080939F
:1034B00081008091800081608093800080919100E4
:1034C000826080939100809191008160809391004F
:1034D000809190008160809390008091C100846011
:1034E0008093C1008091C10082608093C10080916F
:1034F000C10081608093C1008091C300816080938E
:10350000C3008091C00082608093C0008091C2009F
:1035100081608093C20080917A00846080937A00F9
:1035200080917A00826080937A0080917A00816035
:1035300080937A0080917A00806880937A0010925C
:10354000310210921F0210921E028091D7008160FA
:103550008093D70080EA8093D80089B5806189BDC7
:1035600089B5826089BD09B400FEFDCF61E070E0DD
:1035700080E090E00E94F7108091D8008F7C8061FD
:103580008093D8008091E000807F8093E00080915C
:10359000E1008E7E8093E1008DE08093E200559AF9
:1035A000209A5D9828988EEF96E09093AC028093D5
:1035B000AB0261E08091CD020E944D058091CD0269
:1035C000082E000C990BFC01E559F94FE491F0E04D
:1035D000EE0FFF1FE15BF94F259134913093D40238
:1035E0002093D302FC01E657F94FE491E093D00217
:1035F000CFB7F89480912002811127C0ECE7F6E064
:103600008491EBE9F6E09491E82FF0E0EE0FFF1FD4
:10361000EF5BF94FA591B491EC91E92321F461E0BE
:1036200081E10E941F0561E081E10E944D058CB59A
:1036300080618CBD8CB580648CBD61E08FE00E94A0
:103640004D0561E080E10E944D05809120028F5F71
:1036500080932002CFBF8CB58C7F8CBD8DB58160EF
:103660008DBD8CB58C608CBD8091CE028F3F21F1D9
:1036700061E00E944D0561E08091CE020E941F052D
:1036800062E370E080E090E00E94F71060E08091DB
:10369000CE020E941F0562E370E080E090E00E948D
:1036A000F71061E08091CE020E941F0562E370E096
:1036B00080E090E00E94F7101092C80280E58093AD
:1036C000C9021092CA021092CB0280EF90E0909350
:1036D000B6028093B5029093B8028093B702EEE1F0
:1036E000F6E0F490CFE1D6E0FA948FEFF81609F403
:1036F00032C0FE0164918DEA92E00E9466106E0174
:10370000F2E0CF0ED11CFE013196E490CE2DCF77A2
:103710008601DC2FD15048F0F80164918DEA92E0E7
:103720000E9459100F5F1F4FF5CFCC0DDD2DD11D1D
:10373000E7FEDACF8E010F5F1F4FFE01649170E04C
:103740006F3F710511F464EF71E090E080E00E943A
:10375000F710E801C9CF62E08DEA92E00E947B1089
:1037600070E060E08DEA92E00E94D80E86E190E081
:103770009093BA028093B9021092BC021092BB02DD
:103780008FEF9FEF9093C0028093BF029093BE0291
:103790008093BD0283E08093C1028093C2024BE01C
:1037A00050E06BE671E08DEA92E00E94250662E04F
:1037B00089E00E944D0562E088E00E944D0562E0CC
:1037C00087E00E944D0562E086E00E944D050E9460
:1037D000AD1000E010E0C1E0D0E0E12C40E8F42EB4
:1037E000109224021092230261E085E00E944D05B0
:1037F00060E085E00E941F0589E00E94F604892BA5
:1038000021F4D0932402C093230288E00E94F6049E
:10381000892B49F480912302909124028260909335
:1038200024028093230287E00E94F604892B49F446
:1038300080912302909124028460909324028093CB
:10384000230286E00E94F604892B49F4809123022A
:10385000909124028860909324028093230260E078
:1038600085E00E944D0561E084E00E944D0560E026
:1038700084E00E941F0589E00E94F604892B49F428
:10388000809123029091240280619093240280937E
:10389000230288E00E94F604892B49F480912302D8
:1038A000909124028062909324028093230287E007
:1038B0000E94F604892B49F48091230290912402FE
:1038C0008064909324028093230286E00E94F60491
:1038D000892B49F48091230290912402806890936F
:1038E00024028093230260E084E00E944D0561E0A1
:1038F00083E00E944D0560E083E00E941F0589E09F
:103900000E94F604892B49F48091230290912402AD
:103910009160909324028093230288E00E94F60431
:10392000892B49F480912302909124029260909314
:1039300024028093230287E00E94F604892B49F435
:1039400080912302909124029460909324028093AA
:10395000230286E00E94F604892B49F48091230219
:10396000909124029860909324028093230260E057
:1039700083E00E944D0561E082E00E944D0560E019
:1039800082E00E941F0589E00E94F604892B49F419
:10399000809123029091240290619093240280935D
:1039A000230288E00E94F604892B49F480912302C7
:1039B000909124029062909324028093230287E0E6
:1039C0000E94F604892B49F48091230290912402ED
:1039D0009064909324028093230286E00E94F60470
:1039E000892B49F48091230290912402906890934E
:1039F00024028093230260E082E00E944D058091C2
:103A000025029091260290930C0180930B018E7FEA
:103A100090932602809325028091230280FF0CC0A0
:103A200081E00E94381280912502909126028160E7
:103A30009093260280932502809125029091260280
:103A40008D7F90932602809325028091230281FF2F
:103A50000CC082E00E9438128091250290912602CB
:103A6000826090932602809325028091210290919A
:103A700022022091230222FFC1C182FD10C02091A9
:103A800025023091260222FFB7C12B7F30932602F8
:103A900020932502846090932202809321028091DA
:103AA000250282FF03C081E00E943812809121022A
:103AB000909122022091230223FFA4C183FD10C014
:103AC000209125023091260223FF9AC1277F30934F
:103AD000260220932502886090932202809321027F
:103AE0008091250283FF03C082E00E9438128091FA
:103AF0002102909122022091230224FF87C184FD9C
:103B000010C0209125023091260224FF7DC12F7E16
:103B100030932602209325028061909322028093A5
:103B200021028091250284FF73C181E00E9444122A
:103B300080912102909122022091230225FF77C1DA
:103B400085FD10C0209125023091260225FF6DC110
:103B50002F7D3093260220932502806290932202CB
:103B6000809321028091250284FF63C182E00E943C
:103B7000441280912502909126028F7B9093260219
:103B8000809325022091230226FF67C080649093D2
:103B9000260280932502D0930C01C0930B0139E2D9
:103BA000D32E61E881E80E941B12DA94D110F9CF7C
:103BB00023E2D22E6AE38FE70E941B12DA94D1101F
:103BC000F9CF64E170E080E090E00E94F71081E0BE
:103BD0000E94381264E170E080E090E00E94F710EB
:103BE00096E0D92E6FE780E00E941B12DA94D11084
:103BF000F9CF64E170E080E090E00E94F71081E08E
:103C00000E94381264E170E080E090E00E94F710BA
:103C100081E2D82E69EB81E80E941B12DA94D11060
:103C2000F9CF64E170E080E090E00E94F71081E05D
:103C30000E94381264E170E080E090E00E94F7108A
:103C400064E680E00E941B126CE271E080E090E08C
:103C50000E94F71081E00E94381280912502909115
:103C600026028F77909326028093250220912302CB
:103C700027FF0DC080689093260280932502D09381
:103C80000C01C0930B010E94E0130E945413809119
:103C90002502909126029E7F909326028093250212
:103CA000209123023091240230FF0BC09160909349
:103CB000260280932502D0930C01C0930B010E9431
:103CC000E01380912502909126029D7F9093260219
:103CD00080932502209123023091240231FF0BC0F2
:103CE00092609093260280932502D0930C01C0939A
:103CF0000B010E94541380912502909126029F7B14
:103D000090932602809325028091230290912402B1
:103D100096FF43C06AE070E080E090E00E94F710F8
:103D200063E88FE992E00E9450126AE070E080E060
:103D300090E00E94F71062E78FE992E00E940D1375
:103D40006AE070E080E090E00E94F71063E88FE99D
:103D500092E00E94BC1264E670E080E090E00E9475
:103D6000F7104AE050E067E771E08FE992E00E94C7
:103D7000CD0764E670E080E090E00E94F71060EB11
:103D80008FE992E00E940D13809125029091260206
:103D90009064909326028093250280912502909151
:103DA00026029F779093260280932502809123021A
:103DB0009091240297FF04C0F0922602E09225021F
:103DC000209125023091260280910B0190910C01E7
:103DD0002817390721F0D0930C01C0930B016EE135
:103DE00070E080E090E00E94F7100115110509F4E1
:103DF000F7CC0E940000F4CC246048CE8B7F4BCEE1
:103E0000286065CE877F68CE206182CE8F7E85CE8A
:103E100080919002982F9E7F80FF8ACE909390028F
:103E200060E080E00E941B1283CE206292CE8F7DE4
:103E300095CE80919002982F9D7F81FF9ACE90938E
:103E4000900260E080E00E941B1293CEEE0FFF1FF5
:103E50000590F491E02D099481E090E0F8940C94A1
:063E6000311FF894FFCFB2
:103E660000C18081000000FFFFFFFF010000E100AC
:103E760000000000000000000097061007D506BAF3
:103E860006000000002D04D0111306430490044ED2
:103E9600046C04000000000D13CD07AA10A9100041
:103EA600000000840A2506AA10A9102B1002042976
:103EB6000D010D1D0D110D0F0E02047B107410F374
:103EC6000FB80F610FD80EB50B560B4D4143524F2D
:103ED60020535441544500706F7765727368656C62
:023EE6006C006E
:00000001FF
