:100000000C94D8030C9400040C9400040C94000489
:100010000C9400040C9400040C9400040C94000450
:100020000C9400040C9400040C94FC130C946B14BA
:100030000C9400040C9400040C9400040C94000430
:100040000C9400040C9400040C9400040C94000420
:100050000C9400040C9400040C9400040C949D1661
:100060000C9400040C9400040C9400040C94000400
:100070000C9400040C9400040C9400040C940004F0
:100080000C9400040C9400040C9400040C940004E0
:100090000C9400040C9400040C9400040C940004D0
:1000A0000C9400040C9400040C9400040000000064
:1000B000003E5B4F5B3E3E6B4F6B3E1C3E7C3E1CEE
:1000C000183C7E3C181C577D571C1C5E7F5E1C0034
:1000D000183C1800FFE7C3E7FF0018241800FFE7EB
:1000E000DBE7FF30483A060E2629792926407F05AE
:1000F0000507407F05253F5A3CE73C5A7F3E1C1CC4
:1001000008081C1C3E7F14227F22145F5F005F5F83
:1001100006097F017F006689956A6060606060946F
:10012000A2FFA29408047E040810207E2010080874
:100130002A1C08081C2A08081E101010100C1E0C7F
:100140001E0C30383E3830060E3E0E060000000011
:100150000000005F00000007000700147F147F14F8
:10016000242A7F2A1223130864623649562050003D
:1001700008070300001C2241000041221C002A1C29
:100180007F1C2A08083E0808008070300008080814
:100190000808000060600020100804023E51494534
:1001A0003E00427F400072494949462141494D3352
:1001B0001814127F1027454545393C4A49493141B9
:1001C000211109073649494936464949291E000087
:1001D00014000000403400000008142241141414DC
:1001E0001414004122140802015909063E415D59C8
:1001F0004E7C1211127C7F494949363E41414122D1
:100200007F4141413E7F494949417F090909013EFA
:10021000414151737F0808087F00417F4100204021
:10022000413F017F081422417F404040407F021C33
:10023000027F7F0408107F3E4141413E7F0909094A
:10024000063E4151215E7F09192946264949493216
:1002500003017F01033F4040403F1F2040201F3FDC
:100260004038403F63140814630304780403615961
:10027000494D43007F4141410204081020004141A3
:10028000417F04020102044040404040000307084F
:100290000020545478407F2844443838444444284B
:1002A000384444287F385454541800087E090218F2
:1002B000A4A49C787F0804047800447D400020407A
:1002C000403D007F1028440000417F40007C0478BE
:1002D00004787C080404783844444438FC18242406
:1002E0001818242418FC7C08040408485454542486
:1002F00004043F44243C4040207C1C2040201C3C03
:100300004030403C44281028444C9090907C4464F9
:10031000544C44000836410000007700000041368C
:10032000080002010204023C2623263C1EA1A16112
:10033000123A4040207A3854545559215555794144
:100340002254547842215554784020545579400C19
:100350001E527212395555555939545454593955FC
:100360005454580000457C410002457D420001453F
:100370007C407D1211127DF0282528F07C545545D3
:10038000002054547C547C0A097F4932494949323F
:100390003A4444443A324A4848303A4141217A3A50
:1003A00042402078009DA0A07D3D4242423D3D401C
:1003B00040403D3C24FF2424487E4943662B2FFCCB
:1003C0002F2BFF0929F620C0887E09032054547979
:1003D000410000447D413048484A32384040227A4A
:1003E000007A0A0A727D0D19317D2629292F2826C7
:1003F0002929292630484D402038080808080808CF
:100400000808382F10C8ACBA2F102834FA00007B27
:10041000000008142A142222142A1408550055003A
:1004200055AA55AA55AAFF55FF55FF000000FF0029
:10043000101010FF00141414FF001010FF00FF1024
:1004400010F010F0141414FC001414F700FF000056
:10045000FF00FF1414F404FC141417101F10101FD5
:10046000101F1414141F00101010F0000000001FC3
:10047000101010101F10101010F010000000FF10CE
:100480001010101010101010FF10000000FF1400CA
:1004900000FF00FF00001F10170000FC04F41414FC
:1004A0001710171414F404F40000FF00F7141414C8
:1004B00014141414F700F7141414171410101F1048
:1004C0001F141414F4141010F010F000001F101F6B
:1004D0000000001F14000000FC140000F010F010D9
:1004E00010FF10FF141414FF141010101F00000050
:1004F00000F010FFFFFFFFFFF0F0F0F0F0FFFFFF54
:100500000000000000FFFF0F0F0F0F0F38444438AA
:1005100044FC4A4A4A347E02020606027E027E02F9
:1005200063554941633844443C04407E201E200604
:10053000027E020299A5E7A5991C2A492A1C4C7241
:1005400001724C304A4D4D303048784830BC625AC8
:10055000463D3E494949007E0101017E2A2A2A2A58
:100560002A44445F444440514A444040444A514034
:100570000000FF0103E080FF000008086B6B0836F5
:1005800012362436060F090F060000181800000066
:100590001010003040FF0101001F01011E00191D55
:1005A0001712003C3C3C3C00000000000901809612
:1005B0001180FF3A81550A3601002A04000000F03C
:1005C0002B04000000F021800A13800A2980140007
:1005D000000000240027002A002D00300000000049
:1005E00000250028002B002E003100000000002311
:1005F00000260029002C002F000404040404030436
:1006000005020202020403020202020606060606B0
:10061000060404020202040404080201104080409F
:100620001020408040800802040180402010020118
:10063000108010204040200000000200090F000040
:10064000030401000C000000000000000000000096
:100650000000000000080B00020202000009040074
:10066000000102020000052400100105240101011F
:10067000042402060524060001070581031000403A
:1006800009040100020A0000000705020240000000
:10069000070583024000000403090412010002EF71
:1006A0000201404F1B0692000101020301537061D9
:1006B000726B46756E00537061726B46756E20509A
:1006C000726F204D6963726F0005010902A1010973
:1006D00001A10085010509190129031500250195CE
:1006E0000375018102950175058103050109300932
:1006F0003109381581257F750895038106C0C00032
:10070000000000000000002A2B280000000000006C
:100710000000000000000000000000000000002CAD
:100720009EB4A0A1A2A434A6A7A5AE362D37382723
:100730001E1F20212223242526B333B62EB7B89FAF
:100740008485868788898A8B8C8D8E8F90919293F1
:100750009495969798999A9B9C9D2F3130A3AD358F
:100760000405060708090A0B0C0D0E0F10111213D1
:100770001415161718191A1B1C1DAFB1B0B50005BA
:10078000010906A1018502050719E029E7150025E1
:10079000017501950881029501750881039506751B
:1007A00008150025730507190029738100C01A1761
:1007B00011241FBECFEFDAE0DEBFCDBF11E0A0E015
:1007C000B1E0E4EAF8E302C005900D92A038B10769
:1007D000D9F722E0A0E8B1E001C01D92A536B2072A
:1007E000E1F713E0C8EDD3E004C02197FE010E94B9
:1007F000451CC73DD107C9F70E94FF170C94501C38
:100800000C9400000895FC018091C101882311F12E
:100810003FB7F89482E08093E9002091F200822FA4
:1008200090E01816190614F481E090E0882339F05E
:10083000289844E64093C0014091F1004083222370
:1008400039F02091F200211103C02BE62093E8003B
:100850003FBF08958FEF9FEF0895DC01FB011296D3
:100860002C911297848195812817190641F4918162
:100870008081813A31F49D7F81E0913009F080E000
:1008800008958132E1F79B3029F482811F968C9381
:1008900081E008959A3099F7828150968C93F8CF31
:1008A000DC01FB0188E4808389E4818384E4828322
:1008B0001D969C911D979F709F5B93831D968D91B4
:1008C0009C9124E0969587952A95E1F78F708F5B30
:1008D000848385E0089580919F0181110DC082E09D
:1008E00080939B0184E080939C0110929E01109262
:1008F0009D0181E080939F018BE991E00895CF9362
:10090000DF938091B801811167C081E08093AB01D2
:100910008093AC0121EB31E03093AE012093AD0127
:100920001092B0011092AF0127E131E03093A8019D
:100930002093A7011092B3011092B2011092B50159
:100940001092B4018093B6018093B70181EC80933B
:10095000B1010E946B04FC0181819091AB01482F91
:10096000490F5527551F483051059CF5A281B38189
:10097000109709F527EA31E0338322832081209301
:10098000A9018093AA018091AC01820F80832091FC
:10099000AD01A22FB091AE018A2F821B8917C8F436
:1009A00081813D91C82FD0E0C45FDE4F38838F5FD7
:1009B0008183F2CFD90118962D913C911997211579
:1009C0003105C1F727EA31E019963C932E93189729
:1009D000D5CF81E08093B80187EA91E0DF91CF9194
:1009E0000895CF93DF931F92CDB7DEB76983DC0103
:1009F000ED91FC910280F381E02D41E050E0BE01D9
:100A00006F5F7F4F09950F90DF91CF91089583E03D
:100A10008093E9008091F200882319F08AE38093A3
:100A2000E8000895CF93DF931F92CDB7DEB7FC01A6
:100A30008485958597FD08C02FEF3FEF3587248784
:100A40000F90DF91CF910895CE0101960E9403048B
:100A5000019719F4898190E0F3CF8FEF9FEFF0CFEA
:100A60000F931F93CF93DF931F92CDB7DEB78C0107
:100A7000FC018485958597FF0BC0CE0101960E94ED
:100A80000304019771F4898190E0F80195878487C8
:100A9000F801848595850F90DF91CF911F910F917B
:100AA00008958FEF9FEFF1CFFC018485958597FD29
:100AB0000BC09FB7F89482E08093E9008091F20028
:100AC0009FBF90E0019608959FB7F89482E08093CD
:100AD000E9008091F2009FBF90E008954091950158
:100AE0005091960120919301309194014217530740
:100AF000B4F49091E8009570E1F39091E80092FDD4
:100B000019C08093F1008091950190919601019612
:100B10008F739927892B19F48EEF8093E8008091C9
:100B2000950190919601019690939601809395017D
:100B300081E0089580E00895DF92EF92FF920F9395
:100B40001F93CF93DF93D82E8A01EB017B01E40E34
:100B5000F51ECE15DF0559F0D7FE12C0FE018491B7
:100B60000E946E0521968111F4CF0FEF1FEFC8018F
:100B7000DF91CF911F910F91FF90EF90DF9008953B
:100B80008881EECFEF92FF920F931F93CF93DF9365
:100B9000FB012081213871F52381223259F5DC01D6
:100BA00012964C91248135814217130619F5EC01F8
:100BB0000B851C85F12CE12C0115110589F0F8013C
:100BC000448155816281738180E80E949C058F3F3A
:100BD000980749F0E80EF91ED8010D911C91ECCF51
:100BE00081E08F87C701DF91CF911F910F91FF9017
:100BF000EF90089590E080E0F6CFCF93DF93CDB7EC
:100C0000DEB769970FB6F894DEBF0FBECDBFFC010B
:100C1000DB018C918F5F8C939E012D5F3F4F8DE0A8
:100C2000D9011D928A95E9F729E0298384E08A8316
:100C300091E09D8383E08E832A8721E22B879C8726
:100C40009D879F8722E2288B27E02B8B25E02C8B2A
:100C50008E8B20E430E0388F2F8B998F82818B83AD
:100C600095858685998B8A8B838180688D8B49E1F8
:100C700050E0BE016F5F7F4F80E00E949C05699647
:100C80000FB6F894DEBF0FBECDBFDF91CF910895B0
:100C90000F931F93CF93DF931F92CDB7DEB782E000
:100CA000898342E450E065E576E080E80E949C0597
:100CB0000E946B04DC0112960D911C910115110527
:100CC00089F0D801ED91FC910280F381E02DBE0105
:100CD0006F5F7F4FC801099597FD04C0F80100853B
:100CE0001185ECCF89810F90DF91CF911F910F91EA
:100CF00008952FB7F89487708093E9009091E800E9
:100D0000892F807295FF04C09091F20080E4891BC6
:100D10002FBF089583E00E94790690E00895615006
:100D200030F02091F100FC0120830196F8CF289843
:100D300084E68093C001089581508F3008F047C049
:100D4000E82FF0E0EA55F94F0C94451CC306C7069E
:100D5000B506BB06BF06E706E706E706CA06D006E5
:100D6000D406D806DE06E706E206809180008F777B
:100D7000809380000895809180008F7DF9CF8091CD
:100D80008000877FF5CF84B58F7784BD089584B5C3
:100D90008F7DFBCF809190008F7780939000089596
:100DA000809190008F7DF9CF80919000877FF5CF63
:100DB0008091C0008F778093C00008958091C0001B
:100DC0008F7DF9CF8091C200877F8093C200089504
:100DD000CF93DF93282F30E0F901E95CF94F84913C
:100DE000F901E85EF94FD491F901E750FA4FC49147
:100DF000CC23A1F081110E949C06EC2FF0E0EE0FB5
:100E0000FF1FE551FA4FA591B491EC91ED2381E0DC
:100E100090E009F480E0DF91CF91089580E090E0C8
:100E2000FACF1F93CF93DF93282F30E0F901E95CCD
:100E3000F94F8491F901E85EF94FD491F901E75037
:100E4000FA4FC491CC23A9F0162F81110E949C0661
:100E5000EC2FF0E0EE0FFF1FE352FA4FA591B49193
:100E60008FB7F894EC91111108C0D095DE23DC9374
:100E70008FBFDF91CF911F910895DE2BF8CFCF93D5
:100E8000DF9390E0FC01E85EF94F249187509A4F80
:100E9000FC0184918823C9F090E0880F991FFC0120
:100EA000E153FA4FA591B491FC01E352FA4FC59179
:100EB000D49161110DC09FB7F8948C912095822335
:100EC0008C938881282328839FBFDF91CF91089539
:100ED000623051F49FB7F8943C91822F8095832320
:100EE0008C93E8812E2BEFCF8FB7F894EC912E2BBB
:100EF0002C938FBFEACF3FB7F89480918F019091E8
:100F00009001A0919101B091920126B5A89B05C0D6
:100F10002F3F19F00196A11DB11D3FBFBA2FA92F78
:100F2000982F8827BC01CD01620F711D811D911D75
:100F300042E0660F771F881F991F4A95D1F70895E1
:100F4000AF92BF92CF92DF92EF92FF920F931F93D7
:100F5000CF93DF936C017B018B01040F151FEB0115
:100F60005E01AE18BF08C017D10759F06991D601CC
:100F7000ED91FC910190F081E02DC6010995892B3E
:100F800079F7C501DF91CF911F910F91FF90EF90FD
:100F9000DF90CF90BF90AF900895FB019EBD00C041
:100FA00000C000C000C000C000C000C000C0000001
:100FB0008EBD00C000C000C000C000C000C0000066
:100FC000319761F708958EBD00C000C000C000C019
:100FD0000895EF92FF920F931F93DC011A960D91E3
:100FE0001C911B9718962D913C911997ED91FC91AE
:100FF00000A0F1A1E02D7B0150E040E070E060E056
:1010000009951F910F91FF90EF900895AF92BF92B5
:10101000CF92DF92EF92FF920F931F93CF93DF93C4
:10102000EC01ED8CF12C5701A60EB71EE20EF31E5B
:101030008E8D90E06C01C40ED51E080F191FEEA115
:10104000FFA190818BA18095892380838AE20E94F1
:10105000E307EEA1FFA180819BA1892B80838B2DCB
:101060000E94E3078A2D0E94E3078F2D0E94E30769
:101070008E2D0E94E307EEA1FFA190818BA18095A8
:10108000892380838BE20E94E307EEA1FFA1808188
:101090009BA1892B80838D2D0E94E3078C2D0E94BC
:1010A000E307812F0E94E307802F0E94E307EEA150
:1010B000FFA190818BA18095892380838CE20E947F
:1010C000E307EEA1FFA180819BA1892B8083DF91A3
:1010D000CF911F910F91FF90EF90DF90CF90BF9035
:1010E000AF900895CF92DF92EF92FF920F931F93EC
:1010F000CF93DF936901E801DC011896ED91FC9133
:1011000019976E177F07E4F51A962D913C914217B7
:101110005307B4F51C141D049CF51C161D0684F51C
:10112000DB01AC0DBD1DEA17FB071CF46F01C61AED
:10113000D70AFA01EC0FFD1F2E173F071CF4E90137
:10114000C41BD50B8E01040F151F01501109960108
:10115000260F371F215031090E940608CC9EB0018E
:10116000CD9E700DDC9E700D1124C701DF91CF91D3
:101170001F910F91FF90EF90DF90CF900C94CD07CF
:10118000DF91CF911F910F91FF90EF90DF90CF9063
:101190000895EF92FF920F931F93CF93DF93E9018E
:1011A0007801DC0118962D913C911997621773070D
:1011B00024F51A96ED91FC914E175F07F4F41C1676
:1011C0001D06DCF4FB01EC0FFD1F2E173F071CF47E
:1011D000E901C61BD70B9E01260F371F215031098D
:1011E0008A010E940608BE01C701DF91CF911F91BD
:1011F0000F91FF90EF900C94CD07DF91CF911F914D
:101200000F91FF90EF900895EF92FF920F931F932D
:10121000CF93DF93E9017801FC01208531856217C6
:1012200073071CF52285338542175307F4F41C1607
:101230001D06DCF4FA01EC0FFD1F2E173F071CF40E
:10124000E901C41BD50B8A010C0F1D1F01501109A8
:101250009B010E940608BE01C701DF91CF911F913B
:101260000F91FF90EF900C94CD07DF91CF911F91DC
:101270000F91FF90EF9008950F931F93CF93DF93FB
:1012800077FD23C0DC011896ED91FC9119976E173C
:101290007F07DCF457FD19C01A96ED91FC914E17AB
:1012A0005F079CF4E9018A010F5F1F4F9B012F5FCD
:1012B0003F4F0E9406088D2F0E94E3078C2FDF917D
:1012C000CF911F910F910C94E307DF91CF911F9164
:1012D0000F910895DC01862F9696ED91FC919797DA
:1012E000908193962C91922B90830C94E307DC01D0
:1012F000862F9696ED91FC919797208193969C91DD
:101300009095922390830C94E307611103C061E2EE
:101310000C94770960E2FCCF1F93CF93DF93EC012D
:10132000162F66E30E94770913701E8B1230C9F0E6
:101330001330F1F0113061F060ECCE010E946A09C7
:101340008B8D8D8F8C8D8E8FDF91CF911F91089516
:1013500060EACE010E946A098B8D8E8F8C8D8D8FF5
:10136000F3CF60E0CE010E946A091D8E1E8EECCF85
:1013700060E6F8CF0895FC016370668B84819581E7
:1013800026813781613039F0633029F09187808779
:10139000338722870895318720879387828708952E
:1013A0002F923F924F925F926F927F928F929F9275
:1013B000AF92BF92CF92DF92EF92FF920F931F9363
:1013C000CF93DF93CDB7DEB76A970FB6F894DEBF41
:1013D0000FBECDBF9A8F898F7A8369834A01D22E3F
:1013E00018870F833701BC2CDC0159962D913C9155
:1013F0005A972115310509F015C118968D919C91C8
:101400001997681779070CF0D7C11A968D919C919E
:10141000481759070CF0D0C14C2C512CB6E0CB9E8C
:10142000600D711D11247C876B87161617060CF052
:10143000C3C1EA2DF0E0FA87E98793E0EE0FFF1FC2
:101440009A95E1F7F88BEF87CF01840F951F181657
:1014500019060CF0B1C1A98DBA8D58968C918111E5
:1014600004C0BFEABD1508F4D394A98DBA8DED91DF
:10147000FC9111970284F385E02DCD010995B5E02B
:10148000DB9EC0011124E981FA81FC83EB83312CBE
:10149000212C9C0124553F4F388F2F8B4A2D50E033
:1014A0005E8B4D8BEF89F88DE20DF31D44919E828A
:1014B0008D82D12CC12C69817A81620D731D7A8B4A
:1014C000698B842F90E09C8B8B8BE98DFA8DA081AA
:1014D000B18140FF82C0F1E0BF126FC0AF126DC09A
:1014E0001C96ED91FC912F813885A4014C0D5D1D5A
:1014F00069897A89898D9A8D0995EB89FC89F59599
:10150000E7954E2F5FEFC51AD50A6D817E818D89D3
:101510009E89680F791F7E836D8398E0C916D10478
:1015200081F6AFEF2A1A3A0AEB81FC81E40DF51D32
:10153000FC83EB83F5E02F16310409F0B3CF2F8144
:10154000388526153705B9F0A98DBA8DED91FC9136
:10155000B1E0BB1257C0AB1255C069817A816B5F95
:101560007F4F0088F189E02D830128E030E0A4015D
:10157000898D9A8D0995A98DBA8DED91FC91119760
:101580000688F789E02DCD016A960FB6F894DEBF84
:101590000FBECDBFDF91CF911F910F91FF90EF90C4
:1015A000DF90CF90BF90AF909F908F907F906F9083
:1015B0005F904F903F902F9009941E96ED91FC9173
:1015C000EF80F88409851A8592014D815E816B81D7
:1015D0007C81898D9A8D099590CF2F81388526152C
:1015E000370509F48ACF31E0B31207C0A31205C052
:1015F0001C96ED91FC91930178CF1E96ED91FC9194
:101600007301E0CF6B857C85641975090684F785C5
:10161000E02D73010F8518899201A401898D9A8D9F
:101620000995A9CFF9013496949132974591549137
:10163000D91AB7E0DB9E400D511D1124F901259107
:1016400034913C8B2B8BFA0125903490FA01329621
:10165000749031963491398B3296649031964490DF
:1016600041E04C1518F04A1508F07FC0662D062C95
:10167000000C770B7C836B83842D042C000C990B5E
:101680009E838D83A98DBA8DED91FC911197028473
:10169000F385E02DCD010995512CD12CC12CEA2DDB
:1016A000F0E0FA87E9872B2D30E03C872B87A401F7
:1016B000440D511D47FC5A95588F4F8B69817A8193
:1016C000660D711D67FC7A957E876D877989C716CF
:1016D00008F051CF2C2D30E04D815E81420F531F19
:1016E000A985BA854A9FC0014B9F900D5A9F900DC6
:1016F0001124FC01E80DF91DF88BEF87852D612C75
:101700004F89588D420F531F5E8B4D8B671408F025
:1017100050C044244394480E877041F4C10101969F
:10172000EB89FC89E20DF31DD4901C01D7FE19C092
:10173000A98DBA8DED91FC91662D70E0B1E0BB12E0
:1017400019C0AB1217C02D853E85620F731F04842C
:10175000F585E02D2F8138854D895E89898D9A8D9B
:101760000995DD0C6394842DD1CF1E821D821C82CD
:101770001B8288CF4B815C81640F751FAB85BC8554
:101780006A9FC0016B9F900D7A9F900D1124698113
:101790007A81680F791F0684F785E02DEF80F88441
:1017A00009851A859D014F855889898D9A8D0995DE
:1017B000D8CF570CC3948ACF6A960FB6F894DEBF81
:1017C0000FBECDBFDF91CF911F910F91FF90EF9092
:1017D000DF90CF90BF90AF909F908F907F906F9051
:1017E0005F904F903F902F9008958F929F92AF926D
:1017F000CF92EF92FF920F931F93CF93DF93EC0161
:10180000262F898D9A8D009709F051C06A30D1F446
:101810001D861C868D8948E0849F900111248E8549
:101820009F85820F931F9F878E8781E090E0DF91D5
:10183000CF911F910F91FF90EF90CF90AF909F901D
:101840008F9008956D3089F3CC88AD888F89882377
:10185000C1F08C859D8536E0C39E800D911D1124BD
:10186000488559854817590764F44E855F851D865C
:101870001C8638E0A39EC0011124840F951F9F870A
:101880008E87EA88FB88088919894E855F856C8573
:101890007D85CE010E94D0092C898C859D8546E0EE
:1018A000249F800D911D11249D878C87BECF6A30A7
:1018B00069F41D861C86FC013896E4912D898E857D
:1018C0009F85E29F800D911D1124ADCF6D3009F4ED
:1018D000ACCFFC0134963491631708F4A6CF32964E
:1018E000E491E61708F4A1CFFC013296859094901C
:1018F000462F431B342F47E0349F800C911C11244A
:10190000F401329634913196E4913323A9F1EE2318
:1019100099F1CC88F4013596E491AD884F89442340
:1019200001F10E2E000CFF0BE30FF11DCE9EA00166
:10193000CF9E500D11246C857D85460F571F6885FD
:101940007985641775076CF44E855F851D861C8646
:10195000FC013896E491AE9E400D511D11245F8725
:101960004E87EA88FB88088919894E855F856C85D2
:101970007D85CE010E94D009F4013496E4912C8932
:101980008C859D85E29F800D911D11248DCF6F92D6
:101990007F928F929F92AF92BF92CF92DF92EF92FF
:1019A000FF920F931F93CF93DF93EC016B015A01CA
:1019B00039014801E881F9810284F385E02D099518
:1019C000E881F9810288F389E02D87019301A5015F
:1019D000B601CE010995A501480D591D4150510987
:1019E000E881F9810288F389E02D9301B601CE01E7
:1019F0000995E881F9810088F189E02D9401A5011C
:101A0000B601CE010995C60CD71CB601615071090B
:101A1000E881F9810088F189E02D9401A501CE01CA
:101A20000995E881F9810688F789E02DCE01DF91DB
:101A3000CF911F910F91FF90EF90DF90CF90BF90CB
:101A4000AF909F908F907F906F9009946F927F924C
:101A50008F929F92AF92BF92CF92DF92EF92FF92BE
:101A60000F931F93CF93DF935C01EB016A01490150
:101A700038018701DC01ED91FC916217730719F5BC
:101A8000641675062CF0962D872D3A01C92ED82E96
:101A90009601261937092F5F3F4F048CF58DE02DF5
:101AA000A301BE01C5010995DF91CF911F910F914F
:101AB000FF90EF90DF90CF90BF90AF909F908F906E
:101AC0007F906F9008954615570591F426173707B4
:101AD00024F0892D4B01C22FD82F9E0128193909D6
:101AE0002F5F3F4F068CF78DE02DA601B401DACFB2
:101AF0000284F385E02D0995D501ED91FC910488D0
:101B0000F589E02D83019401A601BE01C501099567
:101B1000D501ED91FC910688F789E02DC501DF9193
:101B2000CF911F910F91FF90EF90DF90CF90BF90DA
:101B3000AF909F908F907F906F900994EF92FF925B
:101B40000F931F93DC011A960D911C911B97189609
:101B50002D913C911997ED91FC9100A0F1A1E02D00
:101B60007B0150E040E070E060E009951F910F912B
:101B7000FF90EF9008954F925F926F927F928F92B5
:101B80009F92AF92BF92CF92DF92EF92FF920F930C
:101B90001F93CF93DF936C012B015A013901480148
:101BA000DC01ED91FC910284F385E02D0995E201C1
:101BB000640C751CD601ED91FC91C615D7055CF43B
:101BC0000088F189E02D87019401A501BE01C601BD
:101BD00009952196EFCF0688F789E02DC601DF91A0
:101BE000CF911F910F91FF90EF90DF90CF90BF901A
:101BF000AF909F908F907F906F905F904F900994DF
:101C00008F929F92AF92BF92CF92DF92EF92FF920C
:101C10000F931F93CF93DF93EC015B014A0169019E
:101C2000E881F9810284F385E02D099595012C0D59
:101C30003D1D21503109E881F9810488F589E02DA5
:101C400078018401A401B501CE010995E881F981EB
:101C50000688F789E02DCE01DF91CF911F910F917A
:101C6000FF90EF90DF90CF90BF90AF909F908F90BC
:101C700009948F929F92AF92BF92CF92DF92EF9290
:101C8000FF920F931F93CF93DF93EC015B014A0107
:101C900069017801E881F9810284F385E02D0995D5
:101CA000C80CD91C860101501109E881F98104880A
:101CB000F589E02D9501A401B501CE010995E881D2
:101CC000F9810688F789E02DCE01DF91CF911F9130
:101CD0000F91FF90EF90DF90CF90BF90AF909F90CB
:101CE0008F900994EF92FF920F931F93DC01ED9177
:101CF000FC9100A0F1A1E02D09951F910F91FF909B
:101D0000EF9008950F931F93DC01ED91FC91068CE9
:101D1000F78DE02D09951F910F9108950F931F9353
:101D2000DC01ED91FC91048CF58DE02D09951F915E
:101D30000F910895DC01ED91FC910084F185E02D77
:101D400009942F923F924F925F926F927F928F925F
:101D50009F92AF92BF92CF92DF92EF92FF920F933A
:101D60001F93CF93DF9300D000D000D0CDB7DEB764
:101D70007C018B015E834D83AB01485E5F4F2D81FB
:101D80003E81BC018DE392E00E949A0EA801485169
:101D900051092D813E81B7018DE392E00E949A0E98
:101DA000B701685E7F4F2D813E81A8018DE392E0EF
:101DB0000E949A0EB701685171092D813E81A801D8
:101DC0008DE392E00E949A0E81E090E09A838983ED
:101DD000B12CA12C88E1C82ED12C80ED9FEF9C83E3
:101DE0008B8399EE692E77247A949FEFA91AB90A0A
:101DF00089819A8102969A838983680E791E2501CA
:101E00004E0C5F1C2D813E8148018C0C9D1CA40151
:101E1000B2018DE392E00E949A0E17012A183B0846
:101E20002D813E81A401B1018DE392E00E949A0EC2
:101E30002D813E8148018C189D08A401B2018DE3DB
:101E400092E00E949A0E2D813E81A401B1018DE3A2
:101E500092E00E949A0E48018A0C9B1C2D813E81C3
:101E6000A40127014C0C5D1CB2018DE392E00E949D
:101E70009A0E2D813E81A40117012C183D08B10155
:101E80008DE392E00E949A0E48018A189B082D81EA
:101E90003E81A401B2018DE392E00E949A0E2D8151
:101EA0003E81A401B1018DE392E00E949A0EAC1430
:101EB000BD04CCF026960FB6F894DEBF0FBECDBFA2
:101EC000DF91CF911F910F91FF90EF90DF90CF9016
:101ED000BF90AF909F908F907F906F905F904F904A
:101EE0003F902F90089577FC80CF91E0C91AD108D8
:101EF0008B819C8102969C838B83680E791E75CFA3
:101F00002F923F924F925F926F927F928F929F9209
:101F1000AF92BF92CF92DF92EF92FF920F931F93F7
:101F2000CF93DF9300D000D000D0CDB7DEB73C0117
:101F30006A013E832D83FC82EB825801A41AB50A04
:101F4000B7FE03C0B194A194B1088D809E80861A1B
:101F5000970A97FE03C09194819491088A149B0478
:101F60005CF0902F812F0D811E819D838E839C2D8F
:101F70008D2D6B01692F782F0C151D055CF09D814F
:101F80008E817E836D83692F782F902F812F86011C
:101F9000C92ED82E1601201A310A2B012D813E811F
:101FA000421A530A57FE03C05194419451087101DB
:101FB00037FE03C03FEFE31AF30AF594E7948D81EF
:101FC0009E81861797075CF5A1E0B0E0BA83A983EC
:101FD000C016D1064CF1D301ED91FC910484F58536
:101FE000E02D2B813C81A8016D817E818A149B04A8
:101FF0001CF04D815E81B801C3010995E418F50814
:10200000F7FE0AC02D813E8189819A81280F391FF0
:102010003E832D83E20CF31C0F5F1F4FD9CF2FEFB0
:102020003FEF3A832983D4CF26960FB6F894DEBFCC
:102030000FBECDBFDF91CF911F910F91FF90EF9019
:10204000DF90CF90BF90AF909F908F907F906F90D8
:102050005F904F903F902F900895CF92DF92EF9234
:10206000FF920F931F93CF93DF936C01EB017B01E2
:10207000E40EF51E10E000E0CE15DF0581F0699159
:102080006D30D1F3D601ED91FC910190F081E02DFE
:10209000C6010995892B19F00F5F1F4FEDCFC801BD
:1020A000DF91CF911F910F91FF90EF90DF90CF9034
:1020B0000895089590E080E00895AF92BF92CF9286
:1020C000DF92EF92FF920F931F93CF93DF932091B4
:1020D00087013091880180918101909182012817B8
:1020E000390709F444C061E084E10E94110769E204
:1020F0008DE392E00E9477098CE2E82EF12C10E04B
:1021000000E0AA24A394B12C6801C6E3D0E020919A
:10211000870130918801C5010C2C02C0880F991FDE
:102120000A94E2F78223932340EE57E0892B11F4BF
:1021300040E058EFBE01C7010E94A10E84E0C80E26
:10214000D11CE296CE3FD10511F70F5F1F4F82E3FE
:10215000E80EF11C04301105B9F6809187019091C9
:102160008801909382018093810110928901DF910F
:10217000CF911F910F91FF90EF90DF90CF90BF9084
:10218000AF9008958F929F92AF92BF92CF92DF92BD
:10219000EF92FF926B017C010E947B074B015C0177
:1021A000C114D104E104F104E9F00E945D100E9421
:1021B0007B07681979098A099B09683E7340810584
:1021C000910570F321E0C21AD108E108F10888EE08
:1021D000880E83E0981EA11CB11CC114D104E10437
:1021E000F10429F7FF90EF90DF90CF90BF90AF9070
:1021F0009F908F9008957F928F929F92AF92BF92FF
:10220000CF92DF92EF92FF920F931F93CF93DF93C2
:10221000C82E8B017A018091C101811110C08FEF0E
:102220009FEFDF91CF911F910F91FF90EF90DF9083
:10223000CF90BF90AF909F908F907F9008958091A6
:10224000990180FF05C08091E00082608093E000EA
:10225000CE2DDF2DD12C8AEFB82E8C2D8770982EA5
:102260008C2D8072882E8C2D8074782E9AE3A92E66
:10227000209719F4DD2009F452C08C2D0E947906B4
:1022800081110AC0BA94BB2051F261E070E080E095
:1022900090E00E94C210ECCF8C171D0611F00CF0DC
:1022A0008C2F9FB7F8949092E9002091E80025FDCB
:1022B00002C09FBFDDCF282F30E0C21BD30B882088
:1022C00029F08150A0F01092F100FBCFF801C7FC7B
:1022D0000AC0815050F041914093F100FACF4491EF
:1022E0004093F10031968150D0F7020F131FDD208B
:1022F00021F0A092E800D12CDCCF8091E80085FD90
:1023000007C0A092E800DD24D394209791F2F3CF88
:10231000209779F6772069F2A092E800CACF5D98FD
:1023200084E680939A01C7017CCFAF92BF92CF928F
:10233000DF92EF92FF920F931F93CF93DF931F9241
:10234000CDB7DEB77C0169836A01590141E050E0F5
:10235000BE016F5F7F4FFC0183810E94FB108C01E7
:1023600097FD0BC0F7018381A501B60180640E942F
:10237000FB10080F191F97FD8C01C8010F90DF910A
:10238000CF911F910F91FF90EF90DF90CF90BF9072
:10239000AF900895CF93DF9300D000D0CDB7DEB7D4
:1023A0009091200299838A836B831C820E947F0410
:1023B00024E030E0AE014F5F5F4F61E00E94951175
:1023C0000F900F900F900F90DF91CF910895809311
:1023D000200260E080E00E94CA111092200260E0BA
:1023E00080E00C94CA1190912002892B981731F04B
:1023F0008093200260E080E00C94CA110895CF938E
:10240000DF93EC01683858F168588E818617D1F057
:102410008F818617B9F088858617A1F08985861780
:1024200089F08A85861771F08B85861759F0FE0131
:10243000369690E080E02191211147C08C0F9D1FBE
:10244000FC0166830E947F04AE014C5F5F4F28E071
:1024500030E062E00E94951181E090E01FC0862F7D
:1024600090E067FF0EC0FC01E058F10921E030E088
:1024700001C0220FEA95EAF78C81822B8C8360E001
:10248000C4CFEC85FD85E80FF91F6491611109C087
:1024900081E090E09B838A8390E080E0DF91CF91A0
:1024A0000895862F807C803C49F48C8180648C83E5
:1024B0006F73623309F0A9CF64E6A7CF67FFF9CF46
:1024C0008C8182608C836F77F4CF01968630910582
:1024D00009F0B1CFDDCFCF93DF93EC016838E0F0A6
:1024E0006858FE0186E0662321F09681961301C0AC
:1024F0001682815031968111F6CF0E947F04AE0181
:102500004C5F5F4F28E030E062E00E94951181E06F
:1025100090E0DF91CF910895862F90E067FF0FC084
:10252000FC01E058F10981E090E001C0880FEA95D4
:10253000EAF780959C8189238C8360E0D2CFEC857B
:10254000FD85E80FF91F649190E080E0662309F3B0
:10255000862F807C803C49F48C818F7B8C836F73C9
:10256000623309F0BECF64E6BCCF67FFF9CF8C8140
:102570008D7F8C836F77F4CFEF92FF921F93CF9371
:10258000DF93EC01162F0E94FF117C01612FCE0119
:102590000E946B12C7019927DF91CF911F91FF9085
:1025A000EF900895CF93DF93EC0180910B01882386
:1025B00031F083E00E94FB101816190634F081E018
:1025C00090E09B838A8380E090E0DF91CF91089533
:1025D000CF93DF9361E085E00E943F0760E085E0F4
:1025E0000E94110786E00E94E80631E020E0892B76
:1025F00009F030E0C32FD22F87E00E94E806892B34
:1026000009F4C26088E00E94E806892B09F4C460DE
:1026100089E00E94E806892B09F4C86060E085E043
:102620000E943F0761E084E00E943F0760E084E091
:102630000E94110786E00E94E806892B09F4C06118
:1026400087E00E94E806892B09F4C06288E00E94B6
:10265000E806892B09F4C06489E00E94E806892B0A
:1026600009F4C06860E084E00E943F0761E083E015
:102670000E943F0760E083E00E94110786E00E940D
:10268000E806892B09F4D16087E00E94E806892BCF
:1026900009F4D26088E00E94E806892B09F4D4602E
:1026A00089E00E94E806892B09F4D86060E083E0A5
:1026B0000E943F0761E082E00E943F0760E082E005
:1026C0000E94110786E00E94E806892B09F4D06178
:1026D00087E00E94E806892B09F4D06288E00E9416
:1026E000E806892B09F4D06489E00E94E806892B6A
:1026F00009F4D06860E082E00E943F07CE01DF91DC
:10270000CF9108950E944B1C4F925F926F927F92DF
:102710008F929F92AF92BF92CF92DF92EF92FF92F1
:102720000F931F93CF93DF93CDB7DEB76DB67EB611
:10273000EE24E394E80E10E000E0F12CF394C801DD
:102740000E943D1C582EFE1461F08FEF581609F4BC
:1027500051C0C8010E943D1C90E00196080F191F4E
:10276000EDCF882E912CEDB7FEB7E819F9090FB619
:10277000F894FEBF0FBEEDBF8DB79EB701967C01EA
:102780006C015C01482E0F5F1F4F8A2D8E19851535
:1027900038F4C8010E943D1CF50181935F01F3CF1D
:1027A0008C2D84198815190440F4F60161916F018C
:1027B0008FE292E00E94BC12F3CF64EF71E080E000
:1027C00090E00E94C21080E00FB6F8947EBE0FBE6B
:1027D0006DBEDF91CF911F910F91FF90EF90DF9031
:1027E000CF90BF90AF909F908F907F906F905F90B1
:1027F0004F90089581E0E8CF1F920F920FB60F928D
:1028000011248F939F938091E1009091E100937F39
:102810009093E10083FF0FC01092E90091E0909344
:10282000EB001092EC0092E39093ED001092C10146
:1028300098E09093F00082FF22C093E09093E9002B
:102840009091F200992319F09AE39093E800909107
:102850009A01992341F090919A01915090939A0195
:10286000911101C05D9A9091C001992341F090911E
:10287000C00191509093C001911101C0289A84FF2A
:1028800018C08091E2008E7E81608093E20080918A
:10289000E1008F7E8093E100809199018E7E8061BE
:1028A000809399019F918F910F900FBE0F901F9071
:1028B000189580FFF7CF8091E2008E7E8061809333
:1028C000E2008091E1008E7E8093E1008091990189
:1028D0008E7E8160E5CF1F920F920FB60F9211246A
:1028E000CF92DF92EF92FF920F931F932F933F931C
:1028F0004F935F936F937F938F939F93AF93BF9308
:10290000EF93FF93CF93DF93CDB7DEB76C97DEBF26
:10291000CDBF1092E9008091E80083FF25C068E0F8
:10292000CE0145960E948F0682EF8093E8008D8944
:1029300087FF39C09091E80090FFFCCF982F9076E8
:1029400009F034C19E894F89588D2F89F88C9111D7
:1029500031C0803861F5809198018093F100109228
:10296000F1008EEF8093E8006C960FB6F894DEBF0E
:102970000FBECDBFDF91CF91FF91EF91BF91AF918E
:102980009F918F917F916F915F914F913F912F9187
:102990001F910F91FF90EF90DF90CF900F900FBE9F
:1029A0000F901F9018959EEF9093E800C7CF10925C
:1029B000F100D5CF913059F48111D3CF4130510579
:1029C00081F6809198018D7F80939801CACF9330D2
:1029D00049F48111C6CF4130510519F68091980113
:1029E0008260F2CF953041F48091E80080FFFCCF07
:1029F00020682093E300B5CF963009F0A9C00B8D75
:102A00001C8D22E01092E90010929601109295011F
:102A1000F2122EC010929401109293010E94480667
:102A20001F8299E09983FA8291E09E8390EA9887C9
:102A30009AEF99872091950130919601275F3F4F3A
:102A40003C832B838D831092E900109296011092A3
:102A50009501109394010093930149E050E0BE0169
:102A60006F5F7F4F80E00E949C050E94480679CFEF
:102A700010939401009393010E946B04DC01129661
:102A80000D911C910115110509F451C1D801ED9169
:102A9000FC910480F581E02DBE016B5E7F4FC80183
:102AA0000995009709F03EC1F80100851185EACF2C
:102AB000F3E0FF120EC08F89882309F440C08230F2
:102AC00061F440E862E186EB96E00E94E71681112E
:102AD00048CF81E28093EB0047CF813029F440E872
:102AE00068E08DEA96E0F1CF833099F70E946B049D
:102AF000DC011296ED90FC908E010F5F1F4F680174
:102B0000E114F10479F0D701ED91FC910680F78191
:102B1000E02DB801C7010995080F111DF701E084E8
:102B2000F184EECFD8011C92F60101900020E9F764
:102B30003197BF016C197D0940E0C601C6CF67E936
:102B400076E0FB01449150E080E80E949C0509CFAB
:102B5000973009F4BECF983021F481E08093F100E2
:102B600000CF993009F0FDCE837009F0B2CFEDE0CF
:102B7000F1E081E031E096E32191222371F080932E
:102B8000E9003093EB00DF0111972C912093EC00CA
:102B90009093ED008F5F873079F78EE78093EA009E
:102BA0001092EA008F898093C101DBCE8B8D9C8DC2
:102BB0001092E90010929601109295019093940161
:102BC00080939301898D811192C08E899D89913A5C
:102BD00049F4813209F07DCF47E050E064E071E0D4
:102BE00080E0B3CF913209F074CF833269F48F89DA
:102BF000988DB0E0A0E08093000190930101A09334
:102C00000201B0930301ADCE803269F48091E800F7
:102C100082FFFCCF67E084E091E00E948F068BEF9B
:102C20008093E8009ECE823209F09BCE8F898093FC
:102C30000B01EEEFFFE7859194918B3F9C4D51F195
:102C4000E0E0F8E08091040190910501A091060177
:102C5000B0910701803B9440A105B105F1F480914A
:102C60000B0180FD1AC0EE3F8AE0F80789F587E77F
:102C700097E791838083809160008093970188E13A
:102C80009BE00FB6F894A895809360000FBE9093D8
:102C9000600067CEEEEFFAE0D5CF80819181873773
:102CA000974709F05ECEA895809160008861809377
:102CB00060008091970180936000EE3F2AE0F20768
:102CC00089F08091FE0A9091FF0A9183808349CE1A
:102CD000808191818737980751F29093FF0A809302
:102CE000FE0AC5CF1092FF0A1092FE0A3ACE0E9449
:102CF0006B04DC0112960D911C910115110509F46C
:102D0000E8CED801ED91FC910190F081E02DBE015B
:102D10006B5E7F4FC8010995811123CEF8010085B4
:102D20001185EBCF181619060CF41BCED2CEF1E0AC
:102D3000FF12BECE6BE976E004CF1F920F920FB662
:102D40000F9211242F933F938F939F93AF93BF9331
:102D500080918B0190918C01A0918D01B0918E0199
:102D600030918A0123E0230F2D3758F50196A11DDC
:102D7000B11D20938A0180938B0190938C01A093C5
:102D80008D01B0938E0180918F0190919001A0915F
:102D90009101B09192010196A11DB11D80938F0107
:102DA00090939001A0939101B0939201BF91AF9144
:102DB0009F918F913F912F910F900FBE0F901F9079
:102DC000189526E8230F0296A11DB11DD2CFEF92D0
:102DD000FF920F931F93CF93DF93F82E192FE62EB8
:102DE000042F81E0860F880F0E946E0583E00E9409
:102DF0006E05CF2DD12FEC0EFD2EF11CCE15DF056B
:102E0000B9F007FF13C0FE0184910E946E05182FD0
:102E100080E00E946E05812321968111EFCFDF9122
:102E2000CF911F910F91FF90EF9008958881EDCF82
:102E300081E0F5CF1092C5011092C40188EE93E0B5
:102E4000A0E0B0E08093C6019093C701A093C801B1
:102E5000B093C90183E291E09093C3018093C201D2
:102E60008FEF9FEF9093CF018093CE0110922002BD
:102E700080911802811113C0109213021092120255
:102E800089EC96E0909315028093140286E390E01B
:102E9000909317028093160281E0809318020E949B
:102EA0007F04FC01A385B485109709F093C082E1EB
:102EB00092E09487838785859685209116023091CC
:102EC0001702820F931F9687858710923202109205
:102ED000310285E391E09093300280932F0280913C
:102EE0002702811113C010922202109221028FE753
:102EF00097E090932402809323028FE290E09093D6
:102F000026028093250281E0809327020E947F049D
:102F1000FC01A385B485109709F067C081E292E0B7
:102F20009487838785859685209125023091260296
:102F3000820F931F968785878FEF96E090933C02D0
:102F400080933B021092400210923F0280EF90E08B
:102F500090934202809341029093440280934302F3
:102F600090934602809345029093480280934702D3
:102F70001092530210924A021092490210924C028F
:102F800010924B0281E080935202809351022FEF06
:102F90003FEF3093500220934F0230934E02209324
:102FA0004D028093540210925502109257021092D3
:102FB000560281E491E090933E0280933D028FEFB0
:102FC00080935C0283E180935D0282E180935E02E4
:102FD0000895DC018D919C9111970097D1F782E1C2
:102FE00092E08D939C9367CFDC018D919C9111971A
:102FF0000097D1F781E292E08D939C9393CF7894E0
:1030000084B5826084BD84B5816084BD85B58260ED
:1030100085BD85B5816085BD80916E00816080939E
:103020006E00109281008091810082608093810007
:103030008091810081608093810080918000816017
:1030400080938000809191008260809391008091B4
:1030500091008160809391008091900081608093C5
:1030600090008091C10084608093C1008091C10074
:1030700082608093C1008091C10081608093C10013
:103080008091C30081608093C3008091C000826002
:103090008093C0008091C20081608093C2008091C3
:1030A0007A00846080937A0080917A0082608093B5
:1030B0007A0080917A00816080937A0080917A0012
:1030C000806880937A001092C1011092980110924A
:1030D00099018091D70081608093D70080EA809326
:1030E000D80089B5806189BD89B5826089BD09B480
:1030F00000FEFDCF61E070E080E090E00E94C21031
:103100008091D8008F7C80618093D8008091E0000E
:10311000807F8093E0008091E1008E7E8093E100CB
:103120008DE08093E200559A209A8FEF96E090937D
:103130003C0280933B0262E086E00E943F0762E02F
:1031400087E00E943F0762E088E00E943F0762E05C
:1031500089E00E943F0761E080915D020E943F0785
:1031600080915D02082E000C990BFC01E750FA4F8C
:10317000E491F0E0EE0FFF1FE352FA4F25913491F6
:103180003093640220936302FC01E85EF94FE491FE
:10319000E0936002CFB7F89480918001811127C03D
:1031A000EAE0F6E08491E9E2F6E09491E82FF0E0BD
:1031B000EE0FFF1FE153FA4FA591B491EC91E92373
:1031C00021F461E081E10E94110761E081E10E9448
:1031D0003F078CB580618CBD8CB580648CBD61E08F
:1031E0008FE00E943F0761E080E10E943F078091ED
:1031F00080018F5F80938001CFBF8CB58C7F8CBDA9
:103200008DB581608DBD8CB58C608CBD80915E026A
:103210008F3F21F161E00E943F0761E080915E02F3
:103220000E94110762E370E080E090E00E94C2100B
:1032300060E080915E020E94110762E370E080E02E
:1032400090E00E94C21061E080915E020E9411072E
:1032500062E370E080E090E00E94C2101092580299
:1032600080E58093590210925A0210925B0280EF1F
:1032700090E0909346028093450290934802809399
:103280004702ECEAF5E01491CDEAD5E0115008F4DC
:1032900032C0FE0164918DE392E00E9477097E01C5
:1032A000F2E0EF0EF11C2196FE010491802F8F7742
:1032B000A82EB12CD12CC12CF701EC0DFD1DCA1488
:1032C000DB0449F064918DE392E00E946A09FFEF0C
:1032D000CF1ADF0AF1CFEF0107FFD8CF2196649113
:1032E00070E06F3F710511F464EF71E090E080E0F1
:1032F0000E94C210CBCF62E08DE392E00E948C0965
:1033000070E060E08DE392E00E94E90786E190E0E2
:1033100090934A028093490210924C0210924B0201
:103320008FEF9FEF9093500280934F0290934E0245
:1033300080934D0283E080935102809352024BE0D0
:1033400050E069E671E08DE392E00E94A0070E94E0
:103350005D1061E084E10E943F07809187019091B8
:1033600088018095909590938201809381010E94BD
:103370005D1062E085E10E943F0700E010E0E12C73
:1033800040E8F42E85E10E94E806892B09F447C243
:103390000E94E812EC018091870190918801C0FFA2
:1033A00077C18160909388018093870181E00E94BA
:1033B000E7118091870190918801C1FF6FC1826000
:1033C000909388018093870182E00E94E7118091A9
:1033D000850190918601C2FF67C182FD0FC02091D7
:1033E000870130918801E4E02E27309388012093F3
:1033F0008701846090938601809385018091870185
:1034000082FF03C081E00E94E711809185019091C5
:103410008601C3FF4BC183FD0FC02091870130910E
:10342000880148E024273093880120938701886031
:1034300090938601809385018091870183FF03C06B
:1034400082E00E94E7118091850190918601C4FF7E
:103450002FC184FD20C02091870130918801A901EE
:10346000E0E14E275093880140938701806190935B
:103470008601809385012095309524FF0CC081E062
:103480000E94F31180918301909184018061909357
:103490008401809383018091870184FD19C080910C
:1034A000830184FF15C080912002982F9E7F80FFAA
:1034B00006C09093200260E080E00E94CA118091D3
:1034C0008301909184018F7E909384018093830186
:1034D0008091850190918601C5FFF0C085FD20C0D7
:1034E0002091870130918801A90160E2462750931D
:1034F00088014093870180629093860180938501C3
:103500002095309525FF0CC082E00E94F311809138
:103510008301909184018062909384018093830160
:103520008091870185FD19C08091830185FF15C0B9
:1035300080912002982F9D7F81FF06C090932002EA
:1035400060E080E00E94CA11809183019091840123
:103550008F7D909384018093830180918501909168
:103560008601C6FFB1C086FD22C02091870130913F
:103570008801A901F0E44F27509388014093870107
:10358000806490938601809385012095309526FF75
:103590000EC067E78FE292E00E94FF1180918301E5
:1035A0009091840180649093840180938301809141
:1035B000870186FD12C08091830186FF0EC067E7F8
:1035C0008FE292E00E946B128091830190918401BE
:1035D0008F7B9093840180938301809185019091EA
:1035E0008601C7FF77C087FD0EC02091870130910B
:1035F0008801205830938801209387018068909338
:103600008601809385018091870187FF05C060E274
:103610008FE292E00E94BC12809187019091880114
:103620009E7FD0FD59C0909388018093870180913F
:103630008701909188019F7BD6FDB2C0909388014D
:1036400080938701D7FDE6C0809187019091880122
:103650009F779093880180938701809189018B3FA8
:1036600008F400C168E28DE392E00E94770960E00F
:1036700084E10E94110764E170E080E090E00E9424
:10368000C2100115110509F47DCE0E9400007ACE0A
:103690008E7F90938801809387018BCE8D7F90934E
:1036A00088018093870193CE8B7FA4CE877FC0CE85
:1036B0008F7E9093860180938501EDCE8F7D9093D0
:1036C0008601809385012CCF8F7B90938601809318
:1036D00085016DCF8F7793CF916090938801809310
:1036E000870139E2D32E61E881E80E94CA11DA9499
:1036F000D110F9CF23E2D22E6AE38FE70E94CA11DC
:10370000DA94D110F9CF64E170E080E090E00E949B
:10371000C21081E00E94E71164E170E080E090E077
:103720000E94C21096E0D92E6FE780E00E94CA1175
:10373000DA94D110F9CF64E170E080E090E00E946B
:10374000C21081E00E94E71164E170E080E090E047
:103750000E94C21081E2D82E69EB81E80E94CA1152
:10376000DA94D110F9CF64E170E080E090E00E943B
:10377000C21081E00E94E71164E170E080E090E017
:103780000E94C21064E680E00E94CA116CE271E0FF
:1037900080E090E00E94C21081E00E94E71147CFD4
:1037A0009064909388018093870163E88FE292E0B0
:1037B0000E94FF116AE070E080E090E00E94C21079
:1037C00062E78FE292E00E94BC126AE070E080E063
:1037D00090E00E94C21063E88FE292E00E946B12B8
:1037E00068EC70E080E090E00E94C2104AE050E097
:1037F00065E771E08FE292E00E942D1064E670E0D0
:1038000080E090E00E94C21060EB8FE292E00E94A4
:10381000BC1218CFF0928801E09287011ECF0E945F
:10382000E812843160E49607D9F060F48231F0E266
:103830009F07A1F08231904409F00FCF80E00E94F1
:1038400084130BCF823140E8940731F084319048E3
:1038500009F003CF84E0F3CF81E0F1CF82E0EFCF36
:1038600083E0EDCF2091870130918801232B09F06F
:1038700002CF8F5F80938901FECEF999FECF92BD72
:1038800081BDF89A992780B50895EE0FFF1F059026
:10389000F491E02D099481E090E0F8940C94501C90
:0438A000F894FFCFCA
:1038A400FFFFFFFF00E100000000000000C1808175
:1038B400000000000000002D04FD05C205500400B6
:1038C400000000F104D2128A0607055405120530DF
:1038D4000500000000BC122D105A10591000000001
:1038E40000F50BA0075A1059103C0902049A0E72F5
:1038F4000E8E0E820E800F02048C0985090409C9FC
:10390400087208E907260DC70C4D4143524F205356
:103914005441544500706F7765727368656C6C0030
:00000001FF
